{
  "contractName": "Auction",
  "abi": [
    {
      "constant": true,
      "inputs": [],
      "name": "auctioneer",
      "outputs": [
        {
          "name": "",
          "type": "address"
        }
      ],
      "payable": false,
      "stateMutability": "view",
      "type": "function"
    },
    {
      "constant": true,
      "inputs": [
        {
          "name": "",
          "type": "uint256"
        }
      ],
      "name": "notaries",
      "outputs": [
        {
          "name": "addr",
          "type": "address"
        }
      ],
      "payable": false,
      "stateMutability": "view",
      "type": "function"
    },
    {
      "constant": true,
      "inputs": [
        {
          "name": "",
          "type": "uint256"
        }
      ],
      "name": "bidders",
      "outputs": [
        {
          "name": "addr",
          "type": "address"
        }
      ],
      "payable": false,
      "stateMutability": "view",
      "type": "function"
    },
    {
      "constant": true,
      "inputs": [
        {
          "name": "",
          "type": "address"
        }
      ],
      "name": "bToN",
      "outputs": [
        {
          "name": "addr",
          "type": "address"
        }
      ],
      "payable": false,
      "stateMutability": "view",
      "type": "function"
    },
    {
      "constant": true,
      "inputs": [],
      "name": "q",
      "outputs": [
        {
          "name": "",
          "type": "uint256"
        }
      ],
      "payable": false,
      "stateMutability": "view",
      "type": "function"
    },
    {
      "inputs": [
        {
          "name": "_q",
          "type": "uint256"
        },
        {
          "name": "_m",
          "type": "uint256"
        }
      ],
      "payable": false,
      "stateMutability": "nonpayable",
      "type": "constructor"
    },
    {
      "anonymous": false,
      "inputs": [
        {
          "indexed": false,
          "name": "_bidder",
          "type": "address"
        },
        {
          "indexed": false,
          "name": "_uv",
          "type": "uint256[2][]"
        },
        {
          "indexed": false,
          "name": "_w",
          "type": "uint256[2]"
        }
      ],
      "name": "bidGiven",
      "type": "event"
    },
    {
      "anonymous": false,
      "inputs": [
        {
          "indexed": false,
          "name": "q",
          "type": "uint256"
        },
        {
          "indexed": false,
          "name": "m",
          "type": "uint256"
        }
      ],
      "name": "auctionCreated",
      "type": "event"
    },
    {
      "constant": false,
      "inputs": [
        {
          "name": "_uv",
          "type": "uint256[2][]"
        },
        {
          "name": "_w",
          "type": "uint256[2]"
        }
      ],
      "name": "bid",
      "outputs": [],
      "payable": false,
      "stateMutability": "nonpayable",
      "type": "function"
    },
    {
      "constant": false,
      "inputs": [],
      "name": "register",
      "outputs": [],
      "payable": false,
      "stateMutability": "nonpayable",
      "type": "function"
    },
    {
      "constant": false,
      "inputs": [],
      "name": "assignNotary",
      "outputs": [],
      "payable": false,
      "stateMutability": "nonpayable",
      "type": "function"
    },
    {
      "constant": false,
      "inputs": [],
      "name": "findWinner",
      "outputs": [],
      "payable": false,
      "stateMutability": "nonpayable",
      "type": "function"
    }
  ],
  "bytecode": "0x608060405234801561001057600080fd5b50604051604080610db983398101806040528101908080519060200190929190805190602001909291905050506000336000806101000a81548173ffffffffffffffffffffffffffffffffffffffff021916908373ffffffffffffffffffffffffffffffffffffffff16021790555082600181905550600090505b818110156100cf576002600182019080600181540180825580915050906001820390600052602060002001600090919290919091505550808060010191505061008b565b7fe4faa94404e0875f4c196ff80a514558e9cd9daaa08ee4f8561fff914b66479160015483604051808381526020018281526020019250505060405180910390a1505050610c97806101226000396000f300608060405260043610610099576000357c0100000000000000000000000000000000000000000000000000000000900463ffffffff168063079d84531461009e5780631aa3a0081461016f578063210591d8146101865780635ec2c7bf1461019d5780636d4b76d5146101f45780638e71decb14610261578063cff29dfd14610278578063d03fadcd146102e5578063fd3ab28214610368575b600080fd5b3480156100aa57600080fd5b5061016d60048036038101908080359060200190820180359060200190808060200260200160405190810160405280939291908181526020016000905b8282101561012c5784848390506040020160028060200260405190810160405280929190826002602002808284378201915050505050815260200190600101906100e7565b505050505091929192908060400190600280602002604051908101604052809291908260026020028082843782019150505050509192919290505050610393565b005b34801561017b57600080fd5b50610184610628565b005b34801561019257600080fd5b5061019b610773565b005b3480156101a957600080fd5b506101b2610983565b604051808273ffffffffffffffffffffffffffffffffffffffff1673ffffffffffffffffffffffffffffffffffffffff16815260200191505060405180910390f35b34801561020057600080fd5b5061021f600480360381019080803590602001909291905050506109a8565b604051808273ffffffffffffffffffffffffffffffffffffffff1673ffffffffffffffffffffffffffffffffffffffff16815260200191505060405180910390f35b34801561026d57600080fd5b506102766109f1565b005b34801561028457600080fd5b506102a360048036038101908080359060200190929190505050610add565b604051808273ffffffffffffffffffffffffffffffffffffffff1673ffffffffffffffffffffffffffffffffffffffff16815260200191505060405180910390f35b3480156102f157600080fd5b50610326600480360381019080803573ffffffffffffffffffffffffffffffffffffffff169060200190929190505050610b2a565b604051808273ffffffffffffffffffffffffffffffffffffffff1673ffffffffffffffffffffffffffffffffffffffff16815260200191505060405180910390f35b34801561037457600080fd5b5061037d610b68565b6040518082815260200191505060405180910390f35b60008060009150600090505b600580549050811015610432576005818154811015156103bb57fe5b906000526020600020906004020160000160009054906101000a900473ffffffffffffffffffffffffffffffffffffffff1673ffffffffffffffffffffffffffffffffffffffff163373ffffffffffffffffffffffffffffffffffffffff16141561042557600191505b808060010191505061039f565b6000151582151514151561044557600080fd5b60056060604051908101604052803373ffffffffffffffffffffffffffffffffffffffff168152602001868152602001858152509080600181540180825580915050906001820390600052602060002090600402016000909192909190915060008201518160000160006101000a81548173ffffffffffffffffffffffffffffffffffffffff021916908373ffffffffffffffffffffffffffffffffffffffff1602179055506020820151816001019080519060200190610507929190610b6e565b5060408201518160020190600261051f929190610bcc565b505050507f5384b3ff153f3878869511ff30204b33691f075950322d79f21c7fbeeb17a4b1338585604051808473ffffffffffffffffffffffffffffffffffffffff1673ffffffffffffffffffffffffffffffffffffffff1681526020018060200183600260200280838360005b838110156105a857808201518184015260208101905061058d565b505050509050018281038252848181518152602001915080516000925b8184101561061057828490602001906020020151600260200280838360005b838110156105ff5780820151818401526020810190506105e4565b5050505090500192600101926105c5565b9250505094505050505060405180910390a150505050565b60008060009150600090505b6004805490508110156106c35760048181548110151561065057fe5b9060005260206000200160000160009054906101000a900473ffffffffffffffffffffffffffffffffffffffff1673ffffffffffffffffffffffffffffffffffffffff163373ffffffffffffffffffffffffffffffffffffffff1614156106b657600191505b8080600101915050610634565b600015158215151415156106d657600080fd5b60046020604051908101604052803373ffffffffffffffffffffffffffffffffffffffff1681525090806001815401808255809150509060018203906000526020600020016000909192909190915060008201518160000160006101000a81548173ffffffffffffffffffffffffffffffffffffffff021916908373ffffffffffffffffffffffffffffffffffffffff1602179055505050505050565b60008060009054906101000a900473ffffffffffffffffffffffffffffffffffffffff1673ffffffffffffffffffffffffffffffffffffffff163373ffffffffffffffffffffffffffffffffffffffff1614151561085f576040517f08c379a000000000000000000000000000000000000000000000000000000000815260040180806020018281038252602e8152602001807f4f6e6c792041756374696f6e65657220697320616c6c6f77656420746f20636181526020017f6c6c2074686973206d6574686f6400000000000000000000000000000000000081525060400191505060405180910390fd5b600090505b6005805490508110156109805760048181548110151561088057fe5b906000526020600020016006600060058481548110151561089d57fe5b906000526020600020906004020160000160009054906101000a900473ffffffffffffffffffffffffffffffffffffffff1673ffffffffffffffffffffffffffffffffffffffff1673ffffffffffffffffffffffffffffffffffffffff1681526020019081526020016000206000820160009054906101000a900473ffffffffffffffffffffffffffffffffffffffff168160000160006101000a81548173ffffffffffffffffffffffffffffffffffffffff021916908373ffffffffffffffffffffffffffffffffffffffff1602179055509050508080600101915050610864565b50565b6000809054906101000a900473ffffffffffffffffffffffffffffffffffffffff1681565b6004818154811015156109b757fe5b906000526020600020016000915090508060000160009054906101000a900473ffffffffffffffffffffffffffffffffffffffff16905081565b6000809054906101000a900473ffffffffffffffffffffffffffffffffffffffff1673ffffffffffffffffffffffffffffffffffffffff163373ffffffffffffffffffffffffffffffffffffffff16141515610adb576040517f08c379a000000000000000000000000000000000000000000000000000000000815260040180806020018281038252602e8152602001807f4f6e6c792041756374696f6e65657220697320616c6c6f77656420746f20636181526020017f6c6c2074686973206d6574686f6400000000000000000000000000000000000081525060400191505060405180910390fd5b565b600581815481101515610aec57fe5b90600052602060002090600402016000915090508060000160009054906101000a900473ffffffffffffffffffffffffffffffffffffffff16905081565b60066020528060005260406000206000915090508060000160009054906101000a900473ffffffffffffffffffffffffffffffffffffffff16905081565b60015481565b828054828255906000526020600020906002028101928215610bbb579160200282015b82811115610bba57825182906002610baa929190610bcc565b5091602001919060020190610b91565b5b509050610bc89190610c0c565b5090565b8260028101928215610bfb579160200282015b82811115610bfa578251825591602001919060010190610bdf565b5b509050610c089190610c38565b5090565b610c3591905b80821115610c315760008181610c289190610c5d565b50600201610c12565b5090565b90565b610c5a91905b80821115610c56576000816000905550600101610c3e565b5090565b90565b5060008155600101600090555600a165627a7a723058202860fc0a710bb0d04175f9d09893ccec9b2f910bceabdd990da86636633c73c70029",
  "source": "pragma solidity  ^0.4.24;\n\ncontract Auction \n{\n    struct Notary   // Notary struct -- may add more attributes to notary if necessary\n    {\n        address addr;\n    }\n    \n    struct Bidder // Bidder struct -- 2D arrays for random representation of values\n    {\n        address addr;   // The unique address\n        uint[2][] uv;   // The random representations of the items \n        uint[2] w;  // The random representation of w\n    }\n\n    address public auctioneer;  // Auctioneer conducts the auction, maybe beneficiary also as of now?\n    uint public q;  // Q decided by auctioneer\n    uint[] items;    // Items array\n    uint auctionEnded;  // Whether auction  ended or not\n\n    Notary[] public notaries;\n    Bidder[] public bidders;    \n\n    mapping(address => Notary) public bToN;\n\n    constructor (uint _q, uint _m) \n    public\n    {\n        auctioneer = msg.sender;\n        q = _q;\n        // The items array is created. May remove if not needed\n        for (uint i = 0; i < _m; i++) \n        {\n            items.push(i+1);\n        }\n        emit auctionCreated(q, _m);\n        // Auctioneer broadcasts the value Q and the no. of items m. \n    }\n\n     // Modifiers\n    modifier onlyBefore(uint _time) { require(now < _time, \"Too Late\"); _; }\n    modifier onlyAfter(uint _time) { require(now > _time, \"Too Early\"); _; }\n    modifier onlyAuctioneer() {require(msg.sender == auctioneer, \"Only Auctioneer is allowed to call this method\"); _; }\n    modifier isNotBidder()\n    {\n        bool flag = false;\n        for(uint i=0; i< bidders.length; i++)\n        {\n            if(msg.sender == bidders[i].addr)\n            {\n                flag = true;\n            }\n        }\n        require(flag == false);\n        _;\n    }\n    modifier isNotNotary()\n    {\n        bool flag = false;\n        for(uint i=0;i<notaries.length; i++)\n        {\n            if(msg.sender == notaries[i].addr)\n            {\n                flag = true;\n            }\n        }\n        require(flag == false);\n        _;\n    } \n    \n    // Events\n    event bidGiven (address _bidder, uint[2][] _uv, uint[2] _w); // just for checking\n    event auctionCreated(uint q, uint m);\n\n    // Bidder will bid using this function\n    function bid(uint[2][] _uv, uint[2] _w)\n    isNotBidder()   // Same bidder can't bid more than once\n    public\n    {\n        bidders.push(Bidder({\n            addr: msg.sender,\n            uv: _uv,\n            w: _w\n        }));\n        emit bidGiven(msg.sender, _uv, _w);\n\n        // Assign a notary to this bidder\n        // Throught mapping(notary ->  bidder) maybe?\n    }\n\n    // Notary will register using this function\n    function register()\n    isNotNotary()   // Same notary can't register more than once\n    public\n    {\n        notaries.push(Notary({\n            addr: msg.sender\n        }));\n    }\n\n    /* \n    The auctioneer calls this to assign each bidder a notary\n    The assigned notary must have access to the bid of each bidder.\n    TODO: Only assigned notary should be able to see the bids\n     */\n    function assignNotary()\n    onlyAuctioneer()    // Only auctioneer should be able to call this method\n    {\n        /* mapping(struct -> struct) is not possible in solidity \n            using a mapping(address => struct) instead\n        */\n        // TODO:Randomize this assigning somehow\n        for(uint i=0;i<bidders.length;i++)\n        {\n            bToN[bidders[i].addr] = notaries[i];\n        }   \n    }\n\n    // Auctioneer starts the process to find the winner.\n    function findWinner()\n    onlyAuctioneer()\n    {\n        // Sort the bidders array according to Procedure 1.\n\n        //\n\n        \n    }\n\n    // function \n    /* \n    temporary function for testing with truffle\n    function getQ()\n    public\n    returns (uint)\n    {\n        return q;\n    }\n     */\n}",
  "sourcePath": "/home/trip-3r/Git/auction-smart-contract/contracts/Auction.sol",
  "compiler": {
    "name": "solc",
    "version": "0.4.24+commit.e67f0147.Emscripten.clang"
  },
  "schemaVersion": "2.0.1",
  "updatedAt": "2018-09-18T17:38:51.761Z"
}