{
  "contractName": "Auction",
  "abi": [
    {
      "constant": true,
      "inputs": [],
      "name": "count",
      "outputs": [
        {
          "name": "",
          "type": "uint256"
        }
      ],
      "payable": false,
      "stateMutability": "view",
      "type": "function"
    },
    {
      "constant": true,
      "inputs": [
        {
          "name": "",
          "type": "address"
        },
        {
          "name": "",
          "type": "uint256"
        }
      ],
      "name": "set_values",
      "outputs": [
        {
          "name": "addr",
          "type": "address"
        },
        {
          "name": "intersect",
          "type": "bool"
        }
      ],
      "payable": false,
      "stateMutability": "view",
      "type": "function"
    },
    {
      "constant": true,
      "inputs": [
        {
          "name": "",
          "type": "address"
        }
      ],
      "name": "pendingReturns",
      "outputs": [
        {
          "name": "",
          "type": "uint256"
        }
      ],
      "payable": false,
      "stateMutability": "view",
      "type": "function"
    },
    {
      "constant": true,
      "inputs": [
        {
          "name": "",
          "type": "address"
        }
      ],
      "name": "workDone",
      "outputs": [
        {
          "name": "",
          "type": "uint256"
        }
      ],
      "payable": false,
      "stateMutability": "view",
      "type": "function"
    },
    {
      "constant": true,
      "inputs": [],
      "name": "auctioneer",
      "outputs": [
        {
          "name": "",
          "type": "address"
        }
      ],
      "payable": false,
      "stateMutability": "view",
      "type": "function"
    },
    {
      "constant": true,
      "inputs": [],
      "name": "constPayment",
      "outputs": [
        {
          "name": "",
          "type": "uint256"
        }
      ],
      "payable": false,
      "stateMutability": "view",
      "type": "function"
    },
    {
      "constant": true,
      "inputs": [
        {
          "name": "",
          "type": "uint256"
        }
      ],
      "name": "notaries",
      "outputs": [
        {
          "name": "addr",
          "type": "address"
        }
      ],
      "payable": false,
      "stateMutability": "view",
      "type": "function"
    },
    {
      "constant": true,
      "inputs": [
        {
          "name": "",
          "type": "address"
        },
        {
          "name": "",
          "type": "uint256"
        }
      ],
      "name": "results",
      "outputs": [
        {
          "name": "addr",
          "type": "address"
        },
        {
          "name": "u",
          "type": "uint256"
        },
        {
          "name": "v",
          "type": "uint256"
        }
      ],
      "payable": false,
      "stateMutability": "view",
      "type": "function"
    },
    {
      "constant": true,
      "inputs": [],
      "name": "countIntersection",
      "outputs": [
        {
          "name": "",
          "type": "uint256"
        }
      ],
      "payable": false,
      "stateMutability": "view",
      "type": "function"
    },
    {
      "constant": true,
      "inputs": [
        {
          "name": "",
          "type": "uint256"
        }
      ],
      "name": "winners",
      "outputs": [
        {
          "name": "addr",
          "type": "address"
        }
      ],
      "payable": false,
      "stateMutability": "view",
      "type": "function"
    },
    {
      "constant": true,
      "inputs": [
        {
          "name": "",
          "type": "address"
        },
        {
          "name": "",
          "type": "uint256"
        }
      ],
      "name": "item_map",
      "outputs": [
        {
          "name": "",
          "type": "uint256"
        }
      ],
      "payable": false,
      "stateMutability": "view",
      "type": "function"
    },
    {
      "constant": true,
      "inputs": [
        {
          "name": "",
          "type": "address"
        },
        {
          "name": "",
          "type": "uint256"
        }
      ],
      "name": "bidValues",
      "outputs": [
        {
          "name": "",
          "type": "uint256"
        }
      ],
      "payable": false,
      "stateMutability": "view",
      "type": "function"
    },
    {
      "constant": true,
      "inputs": [
        {
          "name": "",
          "type": "uint256"
        }
      ],
      "name": "bidders",
      "outputs": [
        {
          "name": "addr",
          "type": "address"
        }
      ],
      "payable": false,
      "stateMutability": "view",
      "type": "function"
    },
    {
      "constant": true,
      "inputs": [
        {
          "name": "",
          "type": "address"
        }
      ],
      "name": "bToN",
      "outputs": [
        {
          "name": "addr",
          "type": "address"
        }
      ],
      "payable": false,
      "stateMutability": "view",
      "type": "function"
    },
    {
      "constant": true,
      "inputs": [
        {
          "name": "",
          "type": "address"
        }
      ],
      "name": "payments",
      "outputs": [
        {
          "name": "",
          "type": "uint256"
        }
      ],
      "payable": false,
      "stateMutability": "view",
      "type": "function"
    },
    {
      "constant": true,
      "inputs": [
        {
          "name": "",
          "type": "address"
        }
      ],
      "name": "notariesPayments",
      "outputs": [
        {
          "name": "",
          "type": "uint256"
        }
      ],
      "payable": false,
      "stateMutability": "view",
      "type": "function"
    },
    {
      "constant": true,
      "inputs": [],
      "name": "q",
      "outputs": [
        {
          "name": "",
          "type": "uint256"
        }
      ],
      "payable": false,
      "stateMutability": "view",
      "type": "function"
    },
    {
      "inputs": [
        {
          "name": "_q",
          "type": "uint256"
        },
        {
          "name": "_m",
          "type": "uint256"
        }
      ],
      "payable": false,
      "stateMutability": "nonpayable",
      "type": "constructor"
    },
    {
      "anonymous": false,
      "inputs": [
        {
          "indexed": false,
          "name": "_bidder",
          "type": "address"
        },
        {
          "indexed": false,
          "name": "_uv",
          "type": "uint256[2][]"
        },
        {
          "indexed": false,
          "name": "_w",
          "type": "uint256[2]"
        }
      ],
      "name": "bidGiven",
      "type": "event"
    },
    {
      "anonymous": false,
      "inputs": [
        {
          "indexed": false,
          "name": "q",
          "type": "uint256"
        },
        {
          "indexed": false,
          "name": "m",
          "type": "uint256"
        }
      ],
      "name": "auctionCreated",
      "type": "event"
    },
    {
      "anonymous": false,
      "inputs": [],
      "name": "auctionEnd",
      "type": "event"
    },
    {
      "constant": true,
      "inputs": [],
      "name": "getBiddersLength",
      "outputs": [
        {
          "name": "a",
          "type": "uint256"
        }
      ],
      "payable": false,
      "stateMutability": "view",
      "type": "function"
    },
    {
      "constant": true,
      "inputs": [],
      "name": "getNotariesLength",
      "outputs": [
        {
          "name": "a",
          "type": "uint256"
        }
      ],
      "payable": false,
      "stateMutability": "view",
      "type": "function"
    },
    {
      "constant": false,
      "inputs": [
        {
          "name": "_uv",
          "type": "uint256[2][]"
        },
        {
          "name": "_w",
          "type": "uint256[2]"
        }
      ],
      "name": "registerBidder",
      "outputs": [],
      "payable": true,
      "stateMutability": "payable",
      "type": "function"
    },
    {
      "constant": false,
      "inputs": [],
      "name": "registerNotary",
      "outputs": [],
      "payable": false,
      "stateMutability": "nonpayable",
      "type": "function"
    },
    {
      "constant": false,
      "inputs": [],
      "name": "assignNotary",
      "outputs": [],
      "payable": false,
      "stateMutability": "nonpayable",
      "type": "function"
    },
    {
      "constant": false,
      "inputs": [],
      "name": "performWork",
      "outputs": [],
      "payable": false,
      "stateMutability": "nonpayable",
      "type": "function"
    },
    {
      "constant": false,
      "inputs": [],
      "name": "prior_Winner",
      "outputs": [],
      "payable": false,
      "stateMutability": "nonpayable",
      "type": "function"
    },
    {
      "constant": false,
      "inputs": [],
      "name": "findWinners",
      "outputs": [],
      "payable": false,
      "stateMutability": "nonpayable",
      "type": "function"
    },
    {
      "constant": false,
      "inputs": [],
      "name": "sortBidders",
      "outputs": [],
      "payable": false,
      "stateMutability": "nonpayable",
      "type": "function"
    },
    {
      "constant": false,
      "inputs": [],
      "name": "makePayments",
      "outputs": [],
      "payable": false,
      "stateMutability": "nonpayable",
      "type": "function"
    },
    {
      "constant": false,
      "inputs": [],
      "name": "payNotaries",
      "outputs": [],
      "payable": false,
      "stateMutability": "nonpayable",
      "type": "function"
    },
    {
      "constant": false,
      "inputs": [],
      "name": "withdrawNotaries",
      "outputs": [
        {
          "name": "",
          "type": "bool"
        }
      ],
      "payable": false,
      "stateMutability": "nonpayable",
      "type": "function"
    },
    {
      "constant": false,
      "inputs": [],
      "name": "withdraw",
      "outputs": [
        {
          "name": "",
          "type": "bool"
        }
      ],
      "payable": false,
      "stateMutability": "nonpayable",
      "type": "function"
    }
  ],
  "bytecode": "0x60806040526000600260006101000a81548160ff0219169083151502179055506000600260016101000a81548160ff02191690831515021790555060006006556000600755600060085534801561005557600080fd5b50604051604080620053d48339810180604052810190808051906020019092919080519060200190929190505050336000806101000a81548173ffffffffffffffffffffffffffffffffffffffff021916908373ffffffffffffffffffffffffffffffffffffffff16021790555081600181905550600a6001548115156100d857fe5b046008819055507fe4faa94404e0875f4c196ff80a514558e9cd9daaa08ee4f8561fff914b66479160015482604051808381526020018281526020019250505060405180910390a150506152a280620001326000396000f300608060405260043610610180576000357c0100000000000000000000000000000000000000000000000000000000900463ffffffff16806306661abd146101855780631bb89762146101b05780631f042776146101db578063210591d81461027357806326b387bb1461028a5780632843d3ca146102e157806334d13302146102f85780633b55d26f146103235780633ccfd60b1461037a5780635d16c0b0146103a95780635ec2c7bf146103d85780635ff8b7781461042f5780636538a79a1461044657806368e9513e146104715780636d4b76d5146104885780637724f4e7146104f557806383b1ab491461059057806384d4496a146105a757806388c4b2ef146105be578063a2fb1175146105e9578063a80672ba14610656578063bd00d885146106b7578063bff575551461077b578063c446cac414610792578063c5365809146107a9578063cff29dfd1461080a578063d03fadcd14610877578063e2982c21146108fa578063f4ce072b14610951578063fd3ab282146109a8575b600080fd5b34801561019157600080fd5b5061019a6109d3565b6040518082815260200191505060405180910390f35b3480156101bc57600080fd5b506101c56109d9565b6040518082815260200191505060405180910390f35b3480156101e757600080fd5b50610226600480360381019080803573ffffffffffffffffffffffffffffffffffffffff169060200190929190803590602001909291905050506109e6565b604051808373ffffffffffffffffffffffffffffffffffffffff1673ffffffffffffffffffffffffffffffffffffffff168152602001821515151581526020019250505060405180910390f35b34801561027f57600080fd5b50610288610a4f565b005b34801561029657600080fd5b506102cb600480360381019080803573ffffffffffffffffffffffffffffffffffffffff169060200190929190505050610e90565b6040518082815260200191505060405180910390f35b3480156102ed57600080fd5b506102f6610ea8565b005b34801561030457600080fd5b5061030d61133c565b6040518082815260200191505060405180910390f35b34801561032f57600080fd5b50610364600480360381019080803573ffffffffffffffffffffffffffffffffffffffff169060200190929190505050611349565b6040518082815260200191505060405180910390f35b34801561038657600080fd5b5061038f611361565b604051808215151515815260200191505060405180910390f35b3480156103b557600080fd5b506103be6114d1565b604051808215151515815260200191505060405180910390f35b3480156103e457600080fd5b506103ed611782565b604051808273ffffffffffffffffffffffffffffffffffffffff1673ffffffffffffffffffffffffffffffffffffffff16815260200191505060405180910390f35b34801561043b57600080fd5b506104446117a7565b005b34801561045257600080fd5b5061045b612692565b6040518082815260200191505060405180910390f35b34801561047d57600080fd5b50610486612698565b005b34801561049457600080fd5b506104b3600480360381019080803590602001909291905050506128d2565b604051808273ffffffffffffffffffffffffffffffffffffffff1673ffffffffffffffffffffffffffffffffffffffff16815260200191505060405180910390f35b34801561050157600080fd5b50610540600480360381019080803573ffffffffffffffffffffffffffffffffffffffff1690602001909291908035906020019092919050505061291b565b604051808473ffffffffffffffffffffffffffffffffffffffff1673ffffffffffffffffffffffffffffffffffffffff168152602001838152602001828152602001935050505060405180910390f35b34801561059c57600080fd5b506105a5612981565b005b3480156105b357600080fd5b506105bc612d02565b005b3480156105ca57600080fd5b506105d3613bc2565b6040518082815260200191505060405180910390f35b3480156105f557600080fd5b5061061460048036038101908080359060200190929190505050613bc8565b604051808273ffffffffffffffffffffffffffffffffffffffff1673ffffffffffffffffffffffffffffffffffffffff16815260200191505060405180910390f35b34801561066257600080fd5b506106a1600480360381019080803573ffffffffffffffffffffffffffffffffffffffff16906020019092919080359060200190929190505050613c15565b6040518082815260200191505060405180910390f35b61077960048036038101908080359060200190820180359060200190808060200260200160405190810160405280939291908181526020016000905b828210156107385784848390506040020160028060200260405190810160405280929190826002602002808284378201915050505050815260200190600101906106f3565b505050505091929192908060400190600280602002604051908101604052809291908260026020028082843782019150505050509192919290505050613c45565b005b34801561078757600080fd5b506107906140de565b005b34801561079e57600080fd5b506107a7614abb565b005b3480156107b557600080fd5b506107f4600480360381019080803573ffffffffffffffffffffffffffffffffffffffff16906020019092919080359060200190929190505050614ee5565b6040518082815260200191505060405180910390f35b34801561081657600080fd5b5061083560048036038101908080359060200190929190505050614f0c565b604051808273ffffffffffffffffffffffffffffffffffffffff1673ffffffffffffffffffffffffffffffffffffffff16815260200191505060405180910390f35b34801561088357600080fd5b506108b8600480360381019080803573ffffffffffffffffffffffffffffffffffffffff169060200190929190505050614f59565b604051808273ffffffffffffffffffffffffffffffffffffffff1673ffffffffffffffffffffffffffffffffffffffff16815260200191505060405180910390f35b34801561090657600080fd5b5061093b600480360381019080803573ffffffffffffffffffffffffffffffffffffffff169060200190929190505050614f97565b6040518082815260200191505060405180910390f35b34801561095d57600080fd5b50610992600480360381019080803573ffffffffffffffffffffffffffffffffffffffff169060200190929190505050614faf565b6040518082815260200191505060405180910390f35b3480156109b457600080fd5b506109bd614fc7565b6040518082815260200191505060405180910390f35b60065481565b6000600580549050905090565b600c60205281600052604060002081815481101515610a0157fe5b90600052602060002001600091509150508060000160009054906101000a900473ffffffffffffffffffffffffffffffffffffffff16908060000160149054906101000a900460ff16905082565b6000806000809054906101000a900473ffffffffffffffffffffffffffffffffffffffff1673ffffffffffffffffffffffffffffffffffffffff163373ffffffffffffffffffffffffffffffffffffffff16141515610b3c576040517f08c379a000000000000000000000000000000000000000000000000000000000815260040180806020018281038252602e8152602001807f4f6e6c792041756374696f6e65657220697320616c6c6f77656420746f20636181526020017f6c6c2074686973206d6574686f6400000000000000000000000000000000000081525060400191505060405180910390fd5b600091505b600580549050821015610e8c57600482815481101515610b5d57fe5b9060005260206000200160096000600585815481101515610b7a57fe5b906000526020600020906004020160000160009054906101000a900473ffffffffffffffffffffffffffffffffffffffff1673ffffffffffffffffffffffffffffffffffffffff1673ffffffffffffffffffffffffffffffffffffffff1681526020019081526020016000206000820160009054906101000a900473ffffffffffffffffffffffffffffffffffffffff168160000160006101000a81548173ffffffffffffffffffffffffffffffffffffffff021916908373ffffffffffffffffffffffffffffffffffffffff160217905550905050600582815481101515610c5f57fe5b9060005260206000209060040201600201600a6000600485815481101515610c8357fe5b9060005260206000200160000160009054906101000a900473ffffffffffffffffffffffffffffffffffffffff1673ffffffffffffffffffffffffffffffffffffffff1673ffffffffffffffffffffffffffffffffffffffff168152602001908152602001600020906002610cf9929190615018565b50600090505b600582815481101515610d0e57fe5b906000526020600020906004020160010180549050811015610e7f57600b6000600484815481101515610d3d57fe5b9060005260206000200160000160009054906101000a900473ffffffffffffffffffffffffffffffffffffffff1673ffffffffffffffffffffffffffffffffffffffff1673ffffffffffffffffffffffffffffffffffffffff168152602001908152602001600020600154600584815481101515610db757fe5b906000526020600020906004020160010183815481101515610dd557fe5b90600052602060002090600202016001600281101515610df157fe5b0154600585815481101515610e0257fe5b906000526020600020906004020160010184815481101515610e2057fe5b90600052602060002090600202016000600281101515610e3c57fe5b015401811515610e4857fe5b0690806001815401808255809150509060018203906000526020600020016000909192909190915055508080600101915050610cff565b8180600101925050610b41565b5050565b60116020528060005260406000206000915090505481565b60006060600060606000806000806000809150600090505b600480549050811015610f5357600481815481101515610edc57fe5b9060005260206000200160000160009054906101000a900473ffffffffffffffffffffffffffffffffffffffff1673ffffffffffffffffffffffffffffffffffffffff163373ffffffffffffffffffffffffffffffffffffffff161415610f465760019150610f53565b8080600101915050610ec0565b60011515821515141515610f6657600080fd5b60076000815480929190600101919050555060009850600b60003373ffffffffffffffffffffffffffffffffffffffff1673ffffffffffffffffffffffffffffffffffffffff16815260200190815260200160002080548060200260200160405190810160405280929190818152602001828054801561100557602002820191906000526020600020905b815481526020019060010190808311610ff1575b50505050509750600096505b60048054905087101561133157600098503373ffffffffffffffffffffffffffffffffffffffff1660048881548110151561104857fe5b9060005260206000200160000160009054906101000a900473ffffffffffffffffffffffffffffffffffffffff1673ffffffffffffffffffffffffffffffffffffffff1614151561132457600b60006004898154811015156110a657fe5b9060005260206000200160000160009054906101000a900473ffffffffffffffffffffffffffffffffffffffff1673ffffffffffffffffffffffffffffffffffffffff1673ffffffffffffffffffffffffffffffffffffffff16815260200190815260200160002080548060200260200160405190810160405280929190818152602001828054801561115857602002820191906000526020600020905b815481526020019060010190808311611144575b5050505050955060009450600093505b87518410156111ea57600092505b85518310156111cf57858381518110151561118d57fe5b9060200190602002015188858151811015156111a557fe5b9060200190602002015114156111c25760019450600198506111cf565b8280600101935050611176565b60018914156111dd576111ea565b8380600101945050611168565b600c60003373ffffffffffffffffffffffffffffffffffffffff1673ffffffffffffffffffffffffffffffffffffffff168152602001908152602001600020604080519081016040528060048a81548110151561124357fe5b9060005260206000200160000160009054906101000a900473ffffffffffffffffffffffffffffffffffffffff1673ffffffffffffffffffffffffffffffffffffffff16815260200187151581525090806001815401808255809150509060018203906000526020600020016000909192909190915060008201518160000160006101000a81548173ffffffffffffffffffffffffffffffffffffffff021916908373ffffffffffffffffffffffffffffffffffffffff16021790555060208201518160000160146101000a81548160ff0219169083151502179055505050505b8680600101975050611011565b505050505050505050565b6000600480549050905090565b600d6020528060005260406000206000915090505481565b600080600260009054906101000a900460ff16600115158115151415156113f0576040517f08c379a00000000000000000000000000000000000000000000000000000000081526004018080602001828103825260208152602001807f56616c7565206f66207661726961626c652073686f756c64206265207472756581525060200191505060405180910390fd5b601160003373ffffffffffffffffffffffffffffffffffffffff1673ffffffffffffffffffffffffffffffffffffffff16815260200190815260200160002054915060008211156114c8576000601160003373ffffffffffffffffffffffffffffffffffffffff1673ffffffffffffffffffffffffffffffffffffffff168152602001908152602001600020819055503373ffffffffffffffffffffffffffffffffffffffff166108fc839081150290604051600060405180830381858888f193505050501580156114c6573d6000803e3d6000fd5b505b60019250505090565b600080600260019054906101000a900460ff1660011515811515141515611560576040517f08c379a00000000000000000000000000000000000000000000000000000000081526004018080602001828103825260208152602001807f56616c7565206f66207661726961626c652073686f756c64206265207472756581525060200191505060405180910390fd5b600260009054906101000a900460ff16600115158115151415156115ec576040517f08c379a00000000000000000000000000000000000000000000000000000000081526004018080602001828103825260208152602001807f56616c7565206f66207661726961626c652073686f756c64206265207472756581525060200191505060405180910390fd5b60008060009150600090505b60048054905081101561168b5760048181548110151561161457fe5b9060005260206000200160000160009054906101000a900473ffffffffffffffffffffffffffffffffffffffff1673ffffffffffffffffffffffffffffffffffffffff163373ffffffffffffffffffffffffffffffffffffffff16141561167e576001915061168b565b80806001019150506115f8565b6001151582151514151561169e57600080fd5b601060003373ffffffffffffffffffffffffffffffffffffffff1673ffffffffffffffffffffffffffffffffffffffff1681526020019081526020016000205494506000851115611776576000601060003373ffffffffffffffffffffffffffffffffffffffff1673ffffffffffffffffffffffffffffffffffffffff168152602001908152602001600020819055503373ffffffffffffffffffffffffffffffffffffffff166108fc869081150290604051600060405180830381858888f19350505050158015611774573d6000803e3d6000fd5b505b60019550505050505090565b6000809054906101000a900473ffffffffffffffffffffffffffffffffffffffff1681565b6000806000806000809054906101000a900473ffffffffffffffffffffffffffffffffffffffff1673ffffffffffffffffffffffffffffffffffffffff163373ffffffffffffffffffffffffffffffffffffffff16141515611897576040517f08c379a000000000000000000000000000000000000000000000000000000000815260040180806020018281038252602e8152602001807f4f6e6c792041756374696f6e65657220697320616c6c6f77656420746f20636181526020017f6c6c2074686973206d6574686f6400000000000000000000000000000000000081525060400191505060405180910390fd5b60048054905060075414151561193b576040517f08c379a00000000000000000000000000000000000000000000000000000000081526004018080602001828103825260258152602001807f416c6c206e6f7461726965732068617665206e6f742066696e6973686564207781526020017f6f726b312e00000000000000000000000000000000000000000000000000000081525060400191505060405180910390fd5b60036005600081548110151561194d57fe5b9060005260206000209060040201908060018154018082558091505090600182039060005260206000209060040201600090919290919091506000820160009054906101000a900473ffffffffffffffffffffffffffffffffffffffff168160000160006101000a81548173ffffffffffffffffffffffffffffffffffffffff021916908373ffffffffffffffffffffffffffffffffffffffff1602179055506001820181600101908054611a03929190615055565b506002820181600201906002611a1a9291906150ba565b50505050600154600a60006009600060056000815481101515611a3957fe5b906000526020600020906004020160000160009054906101000a900473ffffffffffffffffffffffffffffffffffffffff1673ffffffffffffffffffffffffffffffffffffffff1673ffffffffffffffffffffffffffffffffffffffff16815260200190815260200160002060000160009054906101000a900473ffffffffffffffffffffffffffffffffffffffff1673ffffffffffffffffffffffffffffffffffffffff1673ffffffffffffffffffffffffffffffffffffffff1681526020019081526020016000206001600281101515611b1157fe5b0154600a60006009600060056000815481101515611b2b57fe5b906000526020600020906004020160000160009054906101000a900473ffffffffffffffffffffffffffffffffffffffff1673ffffffffffffffffffffffffffffffffffffffff1673ffffffffffffffffffffffffffffffffffffffff16815260200190815260200160002060000160009054906101000a900473ffffffffffffffffffffffffffffffffffffffff1673ffffffffffffffffffffffffffffffffffffffff1673ffffffffffffffffffffffffffffffffffffffff1681526020019081526020016000206000600281101515611c0357fe5b015401811515611c0f57fe5b066011600060056000815481101515611c2457fe5b906000526020600020906004020160000160009054906101000a900473ffffffffffffffffffffffffffffffffffffffff1673ffffffffffffffffffffffffffffffffffffffff1673ffffffffffffffffffffffffffffffffffffffff16815260200190815260200160002060008282540392505081905550600192505b6005805490508310156126455760009350600091505b6003805490508210156122d057600d600060096000600587815481101515611cdc57fe5b906000526020600020906004020160000160009054906101000a900473ffffffffffffffffffffffffffffffffffffffff1673ffffffffffffffffffffffffffffffffffffffff1673ffffffffffffffffffffffffffffffffffffffff16815260200190815260200160002060000160009054906101000a900473ffffffffffffffffffffffffffffffffffffffff1673ffffffffffffffffffffffffffffffffffffffff1673ffffffffffffffffffffffffffffffffffffffff16815260200190815260200160002060008154809291906001019190505550600d600060096000600386815481101515611dcd57fe5b906000526020600020906004020160000160009054906101000a900473ffffffffffffffffffffffffffffffffffffffff1673ffffffffffffffffffffffffffffffffffffffff1673ffffffffffffffffffffffffffffffffffffffff16815260200190815260200160002060000160009054906101000a900473ffffffffffffffffffffffffffffffffffffffff1673ffffffffffffffffffffffffffffffffffffffff1673ffffffffffffffffffffffffffffffffffffffff16815260200190815260200160002060008154809291906001019190505550600090505b600c600060096000600587815481101515611ec357fe5b906000526020600020906004020160000160009054906101000a900473ffffffffffffffffffffffffffffffffffffffff1673ffffffffffffffffffffffffffffffffffffffff1673ffffffffffffffffffffffffffffffffffffffff16815260200190815260200160002060000160009054906101000a900473ffffffffffffffffffffffffffffffffffffffff1673ffffffffffffffffffffffffffffffffffffffff1673ffffffffffffffffffffffffffffffffffffffff168152602001908152602001600020805490508110156122b55760096000600384815481101515611fab57fe5b906000526020600020906004020160000160009054906101000a900473ffffffffffffffffffffffffffffffffffffffff1673ffffffffffffffffffffffffffffffffffffffff1673ffffffffffffffffffffffffffffffffffffffff16815260200190815260200160002060000160009054906101000a900473ffffffffffffffffffffffffffffffffffffffff1673ffffffffffffffffffffffffffffffffffffffff16600c60006009600060058881548110151561206857fe5b906000526020600020906004020160000160009054906101000a900473ffffffffffffffffffffffffffffffffffffffff1673ffffffffffffffffffffffffffffffffffffffff1673ffffffffffffffffffffffffffffffffffffffff16815260200190815260200160002060000160009054906101000a900473ffffffffffffffffffffffffffffffffffffffff1673ffffffffffffffffffffffffffffffffffffffff1673ffffffffffffffffffffffffffffffffffffffff1681526020019081526020016000208281548110151561213f57fe5b9060005260206000200160000160009054906101000a900473ffffffffffffffffffffffffffffffffffffffff1673ffffffffffffffffffffffffffffffffffffffff1614156122a85760011515600c6000600960006005888154811015156121a457fe5b906000526020600020906004020160000160009054906101000a900473ffffffffffffffffffffffffffffffffffffffff1673ffffffffffffffffffffffffffffffffffffffff1673ffffffffffffffffffffffffffffffffffffffff16815260200190815260200160002060000160009054906101000a900473ffffffffffffffffffffffffffffffffffffffff1673ffffffffffffffffffffffffffffffffffffffff1673ffffffffffffffffffffffffffffffffffffffff1681526020019081526020016000208281548110151561227b57fe5b9060005260206000200160000160149054906101000a900460ff16151514156122a757600193506122b5565b5b8080600101915050611eac565b60018414156122c3576122d0565b8180600101925050611cb8565b60008414156126385760036005848154811015156122ea57fe5b9060005260206000209060040201908060018154018082558091505090600182039060005260206000209060040201600090919290919091506000820160009054906101000a900473ffffffffffffffffffffffffffffffffffffffff168160000160006101000a81548173ffffffffffffffffffffffffffffffffffffffff021916908373ffffffffffffffffffffffffffffffffffffffff16021790555060018201816001019080546123a0929190615055565b5060028201816002019060026123b79291906150ba565b50505050600154600a6000600960006005888154811015156123d557fe5b906000526020600020906004020160000160009054906101000a900473ffffffffffffffffffffffffffffffffffffffff1673ffffffffffffffffffffffffffffffffffffffff1673ffffffffffffffffffffffffffffffffffffffff16815260200190815260200160002060000160009054906101000a900473ffffffffffffffffffffffffffffffffffffffff1673ffffffffffffffffffffffffffffffffffffffff1673ffffffffffffffffffffffffffffffffffffffff16815260200190815260200160002060016002811015156124ad57fe5b0154600a6000600960006005898154811015156124c657fe5b906000526020600020906004020160000160009054906101000a900473ffffffffffffffffffffffffffffffffffffffff1673ffffffffffffffffffffffffffffffffffffffff1673ffffffffffffffffffffffffffffffffffffffff16815260200190815260200160002060000160009054906101000a900473ffffffffffffffffffffffffffffffffffffffff1673ffffffffffffffffffffffffffffffffffffffff1673ffffffffffffffffffffffffffffffffffffffff168152602001908152602001600020600060028110151561259e57fe5b0154018115156125aa57fe5b06601160006005868154811015156125be57fe5b906000526020600020906004020160000160009054906101000a900473ffffffffffffffffffffffffffffffffffffffff1673ffffffffffffffffffffffffffffffffffffffff1673ffffffffffffffffffffffffffffffffffffffff168152602001908152602001600020600082825403925050819055505b8280600101935050611ca2565b6001600260006101000a81548160ff0219169083151502179055507f2a24f46c5a2d415532289c6f356facf74846598d8b4277b7d5d14898efd4612a60405160405180910390a150505050565b60085481565b6000809054906101000a900473ffffffffffffffffffffffffffffffffffffffff1673ffffffffffffffffffffffffffffffffffffffff163373ffffffffffffffffffffffffffffffffffffffff1614151515612783576040517f08c379a000000000000000000000000000000000000000000000000000000000815260040180806020018281038252602d8152602001807f41756374696f6e656572206973206e6f7420616c6c6f77656420746f2063616c81526020017f6c2074686973206d6574686f640000000000000000000000000000000000000081525060400191505060405180910390fd5b60008060009150600090505b600480549050811015612822576004818154811015156127ab57fe5b9060005260206000200160000160009054906101000a900473ffffffffffffffffffffffffffffffffffffffff1673ffffffffffffffffffffffffffffffffffffffff163373ffffffffffffffffffffffffffffffffffffffff1614156128155760019150612822565b808060010191505061278f565b6000151582151514151561283557600080fd5b60046020604051908101604052803373ffffffffffffffffffffffffffffffffffffffff1681525090806001815401808255809150509060018203906000526020600020016000909192909190915060008201518160000160006101000a81548173ffffffffffffffffffffffffffffffffffffffff021916908373ffffffffffffffffffffffffffffffffffffffff1602179055505050505050565b6004818154811015156128e157fe5b906000526020600020016000915090508060000160009054906101000a900473ffffffffffffffffffffffffffffffffffffffff16905081565b600e6020528160005260406000208181548110151561293657fe5b9060005260206000209060030201600091509150508060000160009054906101000a900473ffffffffffffffffffffffffffffffffffffffff16908060010154908060020154905083565b6000600260009054906101000a900460ff1660011515811515141515612a0f576040517f08c379a00000000000000000000000000000000000000000000000000000000081526004018080602001828103825260208152602001807f56616c7565206f66207661726961626c652073686f756c64206265207472756581525060200191505060405180910390fd5b6000809054906101000a900473ffffffffffffffffffffffffffffffffffffffff1673ffffffffffffffffffffffffffffffffffffffff163373ffffffffffffffffffffffffffffffffffffffff16141515612af9576040517f08c379a000000000000000000000000000000000000000000000000000000000815260040180806020018281038252602e8152602001807f4f6e6c792041756374696f6e65657220697320616c6c6f77656420746f20636181526020017f6c6c2074686973206d6574686f6400000000000000000000000000000000000081525060400191505060405180910390fd5b600091505b600580549050821015612ce357600854600d600060096000600587815481101515612b2557fe5b906000526020600020906004020160000160009054906101000a900473ffffffffffffffffffffffffffffffffffffffff1673ffffffffffffffffffffffffffffffffffffffff1673ffffffffffffffffffffffffffffffffffffffff16815260200190815260200160002060000160009054906101000a900473ffffffffffffffffffffffffffffffffffffffff1673ffffffffffffffffffffffffffffffffffffffff1673ffffffffffffffffffffffffffffffffffffffff16815260200190815260200160002054026010600060096000600587815481101515612c0857fe5b906000526020600020906004020160000160009054906101000a900473ffffffffffffffffffffffffffffffffffffffff1673ffffffffffffffffffffffffffffffffffffffff1673ffffffffffffffffffffffffffffffffffffffff16815260200190815260200160002060000160009054906101000a900473ffffffffffffffffffffffffffffffffffffffff1673ffffffffffffffffffffffffffffffffffffffff1673ffffffffffffffffffffffffffffffffffffffff168152602001908152602001600020819055508180600101925050612afe565b6001600260016101000a81548160ff0219169083151502179055505050565b6000806000806000612d126150f7565b600480549050600654141515612db6576040517f08c379a00000000000000000000000000000000000000000000000000000000081526004018080602001828103825260248152602001807f416c6c206e6f7461726965732068617665206e6f742066696e6973686564207781526020017f6f726b2e0000000000000000000000000000000000000000000000000000000081525060400191505060405180910390fd5b6000809054906101000a900473ffffffffffffffffffffffffffffffffffffffff1673ffffffffffffffffffffffffffffffffffffffff163373ffffffffffffffffffffffffffffffffffffffff16141515612ea0576040517f08c379a000000000000000000000000000000000000000000000000000000000815260040180806020018281038252602e8152602001807f4f6e6c792041756374696f6e65657220697320616c6c6f77656420746f20636181526020017f6c6c2074686973206d6574686f6400000000000000000000000000000000000081525060400191505060405180910390fd5b600095505b600580549050861015613bba57600094505b6001866005805490500303851015613bad57600d600060096000600589815481101515612ee057fe5b906000526020600020906004020160000160009054906101000a900473ffffffffffffffffffffffffffffffffffffffff1673ffffffffffffffffffffffffffffffffffffffff1673ffffffffffffffffffffffffffffffffffffffff16815260200190815260200160002060000160009054906101000a900473ffffffffffffffffffffffffffffffffffffffff1673ffffffffffffffffffffffffffffffffffffffff1673ffffffffffffffffffffffffffffffffffffffff16815260200190815260200160002060008154809291906001019190505550600d600060096000600560018a01815481101515612fd457fe5b906000526020600020906004020160000160009054906101000a900473ffffffffffffffffffffffffffffffffffffffff1673ffffffffffffffffffffffffffffffffffffffff1673ffffffffffffffffffffffffffffffffffffffff16815260200190815260200160002060000160009054906101000a900473ffffffffffffffffffffffffffffffffffffffff1673ffffffffffffffffffffffffffffffffffffffff1673ffffffffffffffffffffffffffffffffffffffff16815260200190815260200160002060008154809291906001019190505550600091505b600e6000600960006005898154811015156130ca57fe5b906000526020600020906004020160000160009054906101000a900473ffffffffffffffffffffffffffffffffffffffff1673ffffffffffffffffffffffffffffffffffffffff1673ffffffffffffffffffffffffffffffffffffffff16815260200190815260200160002060000160009054906101000a900473ffffffffffffffffffffffffffffffffffffffff1673ffffffffffffffffffffffffffffffffffffffff1673ffffffffffffffffffffffffffffffffffffffff168152602001908152602001600020805490508210156134ab57600960006005600188018154811015156131b557fe5b906000526020600020906004020160000160009054906101000a900473ffffffffffffffffffffffffffffffffffffffff1673ffffffffffffffffffffffffffffffffffffffff1673ffffffffffffffffffffffffffffffffffffffff16815260200190815260200160002060000160009054906101000a900473ffffffffffffffffffffffffffffffffffffffff1673ffffffffffffffffffffffffffffffffffffffff16600e60006009600060058a81548110151561327257fe5b906000526020600020906004020160000160009054906101000a900473ffffffffffffffffffffffffffffffffffffffff1673ffffffffffffffffffffffffffffffffffffffff1673ffffffffffffffffffffffffffffffffffffffff16815260200190815260200160002060000160009054906101000a900473ffffffffffffffffffffffffffffffffffffffff1673ffffffffffffffffffffffffffffffffffffffff1673ffffffffffffffffffffffffffffffffffffffff1681526020019081526020016000208381548110151561334957fe5b906000526020600020906003020160000160009054906101000a900473ffffffffffffffffffffffffffffffffffffffff1673ffffffffffffffffffffffffffffffffffffffff16141561349e57600e6000600960006005898154811015156133ae57fe5b906000526020600020906004020160000160009054906101000a900473ffffffffffffffffffffffffffffffffffffffff1673ffffffffffffffffffffffffffffffffffffffff1673ffffffffffffffffffffffffffffffffffffffff16815260200190815260200160002060000160009054906101000a900473ffffffffffffffffffffffffffffffffffffffff1673ffffffffffffffffffffffffffffffffffffffff1673ffffffffffffffffffffffffffffffffffffffff1681526020019081526020016000208281548110151561348557fe5b90600052602060002090600302016001015493506134ab565b81806001019250506130b3565b600091505b600e600060096000600560018a018154811015156134ca57fe5b906000526020600020906004020160000160009054906101000a900473ffffffffffffffffffffffffffffffffffffffff1673ffffffffffffffffffffffffffffffffffffffff1673ffffffffffffffffffffffffffffffffffffffff16815260200190815260200160002060000160009054906101000a900473ffffffffffffffffffffffffffffffffffffffff1673ffffffffffffffffffffffffffffffffffffffff1673ffffffffffffffffffffffffffffffffffffffff168152602001908152602001600020805490508210156138ae57600960006005878154811015156135b257fe5b906000526020600020906004020160000160009054906101000a900473ffffffffffffffffffffffffffffffffffffffff1673ffffffffffffffffffffffffffffffffffffffff1673ffffffffffffffffffffffffffffffffffffffff16815260200190815260200160002060000160009054906101000a900473ffffffffffffffffffffffffffffffffffffffff1673ffffffffffffffffffffffffffffffffffffffff16600e600060096000600560018b0181548110151561367257fe5b906000526020600020906004020160000160009054906101000a900473ffffffffffffffffffffffffffffffffffffffff1673ffffffffffffffffffffffffffffffffffffffff1673ffffffffffffffffffffffffffffffffffffffff16815260200190815260200160002060000160009054906101000a900473ffffffffffffffffffffffffffffffffffffffff1673ffffffffffffffffffffffffffffffffffffffff1673ffffffffffffffffffffffffffffffffffffffff1681526020019081526020016000208381548110151561374957fe5b906000526020600020906003020160000160009054906101000a900473ffffffffffffffffffffffffffffffffffffffff1673ffffffffffffffffffffffffffffffffffffffff1614156138a157600e600060096000600560018a018154811015156137b157fe5b906000526020600020906004020160000160009054906101000a900473ffffffffffffffffffffffffffffffffffffffff1673ffffffffffffffffffffffffffffffffffffffff1673ffffffffffffffffffffffffffffffffffffffff16815260200190815260200160002060000160009054906101000a900473ffffffffffffffffffffffffffffffffffffffff1673ffffffffffffffffffffffffffffffffffffffff1673ffffffffffffffffffffffffffffffffffffffff1681526020019081526020016000208281548110151561388857fe5b90600052602060002090600302016002015492506138ae565b81806001019250506134b0565b60026001548115156138bc57fe5b046001548486018115156138cc57fe5b06101515613ba0576005858154811015156138e357fe5b9060005260206000209060040201606060405190810160405290816000820160009054906101000a900473ffffffffffffffffffffffffffffffffffffffff1673ffffffffffffffffffffffffffffffffffffffff1673ffffffffffffffffffffffffffffffffffffffff16815260200160018201805480602002602001604051908101604052809291908181526020016000905b828210156139db57838290600052602060002090600202016002806020026040519081016040528092919082600280156139c7576020028201915b8154815260200190600101908083116139b3575b505050505081526020019060010190613978565b50505050815260200160028201600280602002604051908101604052809291908260028015613a1f576020028201915b815481526020019060010190808311613a0b575b5050505050815250509050600560018601815481101515613a3c57fe5b9060005260206000209060040201600586815481101515613a5957fe5b90600052602060002090600402016000820160009054906101000a900473ffffffffffffffffffffffffffffffffffffffff168160000160006101000a81548173ffffffffffffffffffffffffffffffffffffffff021916908373ffffffffffffffffffffffffffffffffffffffff1602179055506001820181600101908054613ae4929190615055565b506002820181600201906002613afb9291906150ba565b5090505080600560018701815481101515613b1257fe5b906000526020600020906004020160008201518160000160006101000a81548173ffffffffffffffffffffffffffffffffffffffff021916908373ffffffffffffffffffffffffffffffffffffffff1602179055506020820151816001019080519060200190613b83929190615135565b50604082015181600201906002613b9b929190615193565b509050505b8480600101955050612eb7565b8580600101965050612ea5565b505050505050565b60075481565b600381815481101515613bd757fe5b90600052602060002090600402016000915090508060000160009054906101000a900473ffffffffffffffffffffffffffffffffffffffff16905081565b600b60205281600052604060002081815481101515613c3057fe5b90600052602060002001600091509150505481565b6000809054906101000a900473ffffffffffffffffffffffffffffffffffffffff1673ffffffffffffffffffffffffffffffffffffffff163373ffffffffffffffffffffffffffffffffffffffff1614151515613d30576040517f08c379a000000000000000000000000000000000000000000000000000000000815260040180806020018281038252602d8152602001807f41756374696f6e656572206973206e6f7420616c6c6f77656420746f2063616c81526020017f6c2074686973206d6574686f640000000000000000000000000000000000000081525060400191505060405180910390fd5b60008060009150600090505b600580549050811015613dcf57600581815481101515613d5857fe5b906000526020600020906004020160000160009054906101000a900473ffffffffffffffffffffffffffffffffffffffff1673ffffffffffffffffffffffffffffffffffffffff163373ffffffffffffffffffffffffffffffffffffffff161415613dc257600191505b8080600101915050613d3c565b60001515821515141515613de257600080fd5b600154836001600281101515613df457fe5b6020020151846000600281101515613e0857fe5b602002015101855102811515613e1a57fe5b0634111515613eb7576040517f08c379a00000000000000000000000000000000000000000000000000000000081526004018080602001828103825260218152602001807f496e73756666696369656e7420616d6f756e74206f662065746865722073656e81526020017f740000000000000000000000000000000000000000000000000000000000000081525060400191505060405180910390fd5b34601160003373ffffffffffffffffffffffffffffffffffffffff1673ffffffffffffffffffffffffffffffffffffffff1681526020019081526020016000208190555060056060604051908101604052803373ffffffffffffffffffffffffffffffffffffffff168152602001868152602001858152509080600181540180825580915050906001820390600052602060002090600402016000909192909190915060008201518160000160006101000a81548173ffffffffffffffffffffffffffffffffffffffff021916908373ffffffffffffffffffffffffffffffffffffffff1602179055506020820151816001019080519060200190613fbd929190615135565b50604082015181600201906002613fd5929190615193565b505050507f5384b3ff153f3878869511ff30204b33691f075950322d79f21c7fbeeb17a4b1338585604051808473ffffffffffffffffffffffffffffffffffffffff1673ffffffffffffffffffffffffffffffffffffffff1681526020018060200183600260200280838360005b8381101561405e578082015181840152602081019050614043565b505050509050018281038252848181518152602001915080516000925b818410156140c657828490602001906020020151600260200280838360005b838110156140b557808201518184015260208101905061409a565b50505050905001926001019261407b565b9250505094505050505060405180910390a150505050565b60008060606000806060600080600260009054906101000a900460ff1660011515811515141515614177576040517f08c379a00000000000000000000000000000000000000000000000000000000081526004018080602001828103825260208152602001807f56616c7565206f66207661726961626c652073686f756c64206265207472756581525060200191505060405180910390fd5b6000809054906101000a900473ffffffffffffffffffffffffffffffffffffffff1673ffffffffffffffffffffffffffffffffffffffff163373ffffffffffffffffffffffffffffffffffffffff16141515614261576040517f08c379a000000000000000000000000000000000000000000000000000000000815260040180806020018281038252602e8152602001807f4f6e6c792041756374696f6e65657220697320616c6c6f77656420746f20636181526020017f6c6c2074686973206d6574686f6400000000000000000000000000000000000081525060400191505060405180910390fd5b600098505b600380549050891015614ab0577fffffffffffffffffffffffffffffffffffffffffffffffffffffffffffffffff9750600b60006009600060038d8154811015156142ad57fe5b906000526020600020906004020160000160009054906101000a900473ffffffffffffffffffffffffffffffffffffffff1673ffffffffffffffffffffffffffffffffffffffff1673ffffffffffffffffffffffffffffffffffffffff16815260200190815260200160002060000160009054906101000a900473ffffffffffffffffffffffffffffffffffffffff1673ffffffffffffffffffffffffffffffffffffffff1673ffffffffffffffffffffffffffffffffffffffff1681526020019081526020016000208054806020026020016040519081016040528092919081815260200182805480156143c157602002820191906000526020600020905b8154815260200190600101908083116143ad575b5050505050965060009550600094505b600580549050851015614673576003898154811015156143ed57fe5b906000526020600020906004020160000160009054906101000a900473ffffffffffffffffffffffffffffffffffffffff1673ffffffffffffffffffffffffffffffffffffffff1660058681548110151561444457fe5b906000526020600020906004020160000160009054906101000a900473ffffffffffffffffffffffffffffffffffffffff1673ffffffffffffffffffffffffffffffffffffffff16141561449757614666565b600b6000600960006005898154811015156144ae57fe5b906000526020600020906004020160000160009054906101000a900473ffffffffffffffffffffffffffffffffffffffff1673ffffffffffffffffffffffffffffffffffffffff1673ffffffffffffffffffffffffffffffffffffffff16815260200190815260200160002060000160009054906101000a900473ffffffffffffffffffffffffffffffffffffffff1673ffffffffffffffffffffffffffffffffffffffff1673ffffffffffffffffffffffffffffffffffffffff1681526020019081526020016000208054806020026020016040519081016040528092919081815260200182805480156145c257602002820191906000526020600020905b8154815260200190600101908083116145ae575b50505050509350600092505b865183101561465357600091505b83518210156146345783828151811015156145f357fe5b90602001906020020151878481518110151561460b57fe5b9060200190602002015114156146275784975060019550614634565b81806001019250506145dc565b60011515861515141561464657614653565b82806001019350506145ce565b60011515861515141561466557614673565b5b84806001019550506143d1565b7fffffffffffffffffffffffffffffffffffffffffffffffffffffffffffffffff881415614725576000600f600060038c8154811015156146b057fe5b906000526020600020906004020160000160009054906101000a900473ffffffffffffffffffffffffffffffffffffffff1673ffffffffffffffffffffffffffffffffffffffff1673ffffffffffffffffffffffffffffffffffffffff16815260200190815260200160002081905550614aa3565b61472f8751614fcd565b600a60006009600060058d81548110151561474657fe5b906000526020600020906004020160000160009054906101000a900473ffffffffffffffffffffffffffffffffffffffff1673ffffffffffffffffffffffffffffffffffffffff1673ffffffffffffffffffffffffffffffffffffffff16815260200190815260200160002060000160009054906101000a900473ffffffffffffffffffffffffffffffffffffffff1673ffffffffffffffffffffffffffffffffffffffff1673ffffffffffffffffffffffffffffffffffffffff168152602001908152602001600020600160028110151561481e57fe5b0154600a60006009600060058e81548110151561483757fe5b906000526020600020906004020160000160009054906101000a900473ffffffffffffffffffffffffffffffffffffffff1673ffffffffffffffffffffffffffffffffffffffff1673ffffffffffffffffffffffffffffffffffffffff16815260200190815260200160002060000160009054906101000a900473ffffffffffffffffffffffffffffffffffffffff1673ffffffffffffffffffffffffffffffffffffffff1673ffffffffffffffffffffffffffffffffffffffff168152602001908152602001600020600060028110151561490f57fe5b01540102600f600060038c81548110151561492657fe5b906000526020600020906004020160000160009054906101000a900473ffffffffffffffffffffffffffffffffffffffff1673ffffffffffffffffffffffffffffffffffffffff1673ffffffffffffffffffffffffffffffffffffffff16815260200190815260200160002081905550600f600060038b8154811015156149a957fe5b906000526020600020906004020160000160009054906101000a900473ffffffffffffffffffffffffffffffffffffffff1673ffffffffffffffffffffffffffffffffffffffff1673ffffffffffffffffffffffffffffffffffffffff168152602001908152602001600020546011600060038c815481101515614a2957fe5b906000526020600020906004020160000160009054906101000a900473ffffffffffffffffffffffffffffffffffffffff1673ffffffffffffffffffffffffffffffffffffffff1673ffffffffffffffffffffffffffffffffffffffff168152602001908152602001600020600082825403925050819055505b8880600101995050614266565b505050505050505050565b614ac36151d3565b6000614acd6151d3565b60008060009150600090505b600480549050811015614b6c57600481815481101515614af557fe5b9060005260206000200160000160009054906101000a900473ffffffffffffffffffffffffffffffffffffffff1673ffffffffffffffffffffffffffffffffffffffff163373ffffffffffffffffffffffffffffffffffffffff161415614b5f5760019150614b6c565b8080600101915050614ad9565b60011515821515141515614b7f57600080fd5b600660008154809291906001019190505550600a60003373ffffffffffffffffffffffffffffffffffffffff1673ffffffffffffffffffffffffffffffffffffffff168152602001908152602001600020600280602002604051908101604052809291908260028015614c07576020028201915b815481526020019060010190808311614bf3575b50505050509450600093505b600480549050841015614ede573373ffffffffffffffffffffffffffffffffffffffff16600485815481101515614c4657fe5b9060005260206000200160000160009054906101000a900473ffffffffffffffffffffffffffffffffffffffff1673ffffffffffffffffffffffffffffffffffffffff16141515614ed157600a6000600486815481101515614ca457fe5b9060005260206000200160000160009054906101000a900473ffffffffffffffffffffffffffffffffffffffff1673ffffffffffffffffffffffffffffffffffffffff1673ffffffffffffffffffffffffffffffffffffffff168152602001908152602001600020600280602002604051908101604052809291908260028015614d43576020028201915b815481526020019060010190808311614d2f575b50505050509250600e60003373ffffffffffffffffffffffffffffffffffffffff1673ffffffffffffffffffffffffffffffffffffffff168152602001908152602001600020606060405190810160405280600487815481101515614da457fe5b9060005260206000200160000160009054906101000a900473ffffffffffffffffffffffffffffffffffffffff1673ffffffffffffffffffffffffffffffffffffffff168152602001856000600281101515614dfc57fe5b6020020151886000600281101515614e1057fe5b6020020151038152602001876001600281101515614e2a57fe5b6020020151866001600281101515614e3e57fe5b6020020151038152509080600181540180825580915050906001820390600052602060002090600302016000909192909190915060008201518160000160006101000a81548173ffffffffffffffffffffffffffffffffffffffff021916908373ffffffffffffffffffffffffffffffffffffffff16021790555060208201518160010155604082015181600201555050505b8380600101945050614c13565b5050505050565b600a60205281600052604060002081600281101515614f0057fe5b01600091509150505481565b600581815481101515614f1b57fe5b90600052602060002090600402016000915090508060000160009054906101000a900473ffffffffffffffffffffffffffffffffffffffff16905081565b60096020528060005260406000206000915090508060000160009054906101000a900473ffffffffffffffffffffffffffffffffffffffff16905081565b600f6020528060005260406000206000915090505481565b60106020528060005260406000206000915090505481565b60015481565b600080600260018401811515614fdf57fe5b0490508291505b81811015615012578091506002818285811515614fff57fe5b040181151561500a57fe5b049050614fe6565b50919050565b8260028101928215615044579182015b82811115615043578254825591600101919060010190615028565b5b50905061505191906151f5565b5090565b8280548282559060005260206000209060020281019282156150a95760005260206000209160020282015b828111156150a85782829060026150989291906150ba565b5091600201919060020190615080565b5b5090506150b6919061521a565b5090565b82600281019282156150e6579182015b828111156150e55782548255916001019190600101906150ca565b5b5090506150f391906151f5565b5090565b608060405190810160405280600073ffffffffffffffffffffffffffffffffffffffff1681526020016060815260200161512f615246565b81525090565b828054828255906000526020600020906002028101928215615182579160200282015b8281111561518157825182906002615171929190615193565b5091602001919060020190615158565b5b50905061518f919061521a565b5090565b82600281019282156151c2579160200282015b828111156151c15782518255916020019190600101906151a6565b5b5090506151cf91906151f5565b5090565b6040805190810160405280600290602082028038833980820191505090505090565b61521791905b808211156152135760008160009055506001016151fb565b5090565b90565b61524391905b8082111561523f57600081816152369190615268565b50600201615220565b5090565b90565b6040805190810160405280600290602082028038833980820191505090505090565b5060008155600101600090555600a165627a7a723058202df410cc39c923fbbd1aea221b10b1c2dfc0f056f73e75a804ba34071378d96a0029",
  "source": "pragma solidity  ^0.4.24;\n// import \"./usingOraclize.sol\";\ncontract Auction\n{\n    struct Notary   // Notary struct -- may add more attributes to notary if necessary\n    {\n        address addr;\n    }\n    struct Bidder // Bidder struct -- 2D arrays for random representation of values\n    {\n        address addr;   // The unique address\n        uint[2][] uv;   // The random representations of the items \n        uint[2] w;  // The random representation of w\n    }\n    struct Result // for storing result of comparision by notaries\n    {\n        address addr;\n        uint u;  // u1-u2\n        uint v;  // v2-v1\n    }\n    struct setIntersection // for storing result of intersections of item lists\n    {\n        address addr;\n        bool intersect;\n    }\n\n    address public auctioneer;  // Auctioneer conducts the auction, maybe beneficiary also as of now?\n    uint public q;  // Q decided by auctioneer\n    bool auctionEnded = false;\n    bool paymentsCalculated = false;\n    \n    Bidder[] public winners;  // containg list of winners\n    Notary[] public notaries; // containg list of notaries\n    Bidder[] public bidders; // containg list of bidders\n    \n    uint public count = 0;  // maintains count of notaries who have done comparision work\n    uint public countIntersection = 0; // maintains count of notaries who have done determination of set intersections\n    uint public constPayment  = 0;\n\n    mapping(address => Notary) public bToN; // mapping between bidders and notaries\n    mapping(address => uint[2]) public bidValues; // mapping between notaries and bid values of bidders assigned to them\n    mapping(address => uint[]) public item_map; // mapping between notaries and set of items of bidders assigned to them\n    mapping(address => setIntersection[]) public set_values; // mapping containing notaries address and set intersection results\n    mapping(address => uint) public workDone; // mapping containg notaries address and amount to be paid to notaries\n    mapping(address => Result[]) public results; // mapping between notaries and results of comparision used for sorting\n    mapping(address => uint) public payments;\n    mapping(address => uint) public notariesPayments;\n    mapping(address => uint256) public pendingReturns;\n\n    constructor (uint _q, uint _m) \n    public\n    {\n        auctioneer = msg.sender;\n        q = _q;\n        constPayment=q/10;\n        emit auctionCreated(q, _m);\n        // Auctioneer broadcasts the value Q and the no. of items m. \n    }\n\n     // Modifiers\n    modifier onlyIfTrue(bool x) { require(x == true, \"Value of variable should be true\"); _;}\n    modifier onlyAuctioneer() {require(msg.sender == auctioneer, \"Only Auctioneer is allowed to call this method\"); _; }\n    modifier workCompleted() { require(count == notaries.length, \"All notaries have not finished work.\"); _; }\n    modifier workCompleted1() { require(countIntersection == notaries.length, \"All notaries have not finished work1.\"); _; }\n    modifier isNotAuctioneer() {require(msg.sender != auctioneer, \"Auctioneer is not allowed to call this method\"); _; }\n    modifier isNotBidder()\n    {\n        bool flag = false;\n        for(uint i=0; i< bidders.length; i++)\n        {\n            if(msg.sender == bidders[i].addr)\n            {\n                flag = true;\n            }\n        }\n        require(flag == false);\n        _;\n    }\n    modifier isNotNotary()\n    {\n        bool flag = false;\n        for(uint i=0;i<notaries.length; i++)\n        {\n            if(msg.sender == notaries[i].addr)\n            {\n                flag = true;\n                break;\n            }\n        }\n        require(flag == false);\n        _;\n    } \n    modifier sufficientNotaries()\n    {\n        require(notaries.length>=bidders.length,\"Insufficient notaries registered\");\n        _;\n    }\n    modifier isNotary()\n    {\n        bool flag = false;\n        for(uint i=0;i<notaries.length; i++)\n        {\n            if(msg.sender == notaries[i].addr)\n            {\n                flag = true;\n                break;\n            }\n        }\n        require(flag == true);\n        _;\n    } \n    \n    // Events\n    event bidGiven (address _bidder, uint[2][] _uv, uint[2] _w); // just for checking\n    event auctionCreated(uint q, uint m);\n    event auctionEnd();\n\n    //Getter Functions for testing\n    function getBiddersLength()\n    public\n    view\n    returns(uint a)\n    {   \n        return bidders.length;\n    }\n\n    function getNotariesLength()\n    public\n    view\n    returns(uint a)\n    {\n        return notaries.length;\n    }\n    // Bidder will bid using this function\n    function registerBidder(uint[2][] _uv, uint[2] _w)\n    payable\n    isNotAuctioneer()\n    isNotBidder()   // Same bidder can't bid more than once\n    public\n    {\n        require( msg.value > _uv.length * (_w[0] + _w[1])%q, \"Insufficient amount of ether sent\");\n        pendingReturns[msg.sender] = msg.value;\n        bidders.push(Bidder({\n            addr: msg.sender,\n            uv: _uv,\n            w: _w\n        }));\n        emit bidGiven(msg.sender, _uv, _w);\n\n        // Assign a notary to this bidder\n        // Throught mapping(notary ->  bidder) maybe?\n    }\n\n    // Notary will register using this function\n    function registerNotary()\n    isNotAuctioneer()\n    isNotNotary()   // Same notary can't register more than once\n    public\n    {\n        notaries.push(Notary({\n            addr: msg.sender\n        }));\n    }\n\n    /* \n    The auctioneer calls this to assign each bidder a notary\n    The assigned notary must have access to the bid of each bidder.\n    TODO: Only assigned notary should be able to see the bids\n     */\n    function assignNotary()\n    onlyAuctioneer()    // Only auctioneer should be able to call this method\n    public\n    {\n        for(uint i=0;i<bidders.length;i++)\n        {\n            bToN[bidders[i].addr] = notaries[i];\n            bidValues[notaries[i].addr]=bidders[i].w;  // assigning bidding values of bidders to their notaries\n            for(uint j=0;j<bidders[i].uv.length;j++)\n            {\n                item_map[notaries[i].addr].push((bidders[i].uv[j][0]+bidders[i].uv[j][1])%q); // assigning bidding items of bidders to notaries\n            }\n        }   \n    }\n    // uint count public =0;\n    function performWork()\n    isNotary()\n    public\n    {\n        count++; // to maintain number of notaries who have done comparison work.\n        uint[2] memory w2 = bidValues[msg.sender];  // u,v of bidder value of bidder assigned to notary\n        for(uint i=0;i<notaries.length;i++){\n            if(notaries[i].addr!= msg.sender){\n                uint[2] memory w1 = bidValues[notaries[i].addr];\n                results[msg.sender].push(Result({\n                    addr: notaries[i].addr,\n                    u: w2[0] - w1[0],\n                    v: w1[1] -w2[1]\n                }));  // add the val1 and val2 into the mapping\n            }\n        }\n    }\n    // Auctioneer starts the process to find the winner.\n    \n    function prior_Winner()\n    isNotary()\n    public\n    {\n        countIntersection++; // to maintain number of notaries who have done determination of intersection between sets.\n        uint flag1=0;\n        uint[] memory w2 = item_map[msg.sender];  // array of items for which bidding is to be done by that bidder\n        for(uint i=0;i<notaries.length;i++)\n        {\n            flag1=0;\n            if(notaries[i].addr != msg.sender)\n            {\n                uint[] memory w1 = item_map[notaries[i].addr];\n                // setIntersection si;\n                // si.addr = notaries[i].addr;\n                bool _intersect = false;\n                for(uint j=0;j<w2.length;j++){\n                    for(uint k=0;k<w1.length;k++){\n                        if(w2[j] == w1[k])\n                        {\n                            _intersect = true;\n                            // si.intersect = true;\n                            flag1=1;\n                            break;\n                        }\n                    }\n                    if(flag1==1)\n                        break;\n                    \n                }\n                set_values[msg.sender].push(setIntersection({\n                    addr :  notaries[i].addr,\n                    intersect : _intersect\n                }));  // pushing true or false according to intersection found between array of items of different bidders\n            }\n        }\n    }\n    \n    function findWinners()\n    onlyAuctioneer()\n    workCompleted1()\n    public\n    {\n        winners.push(bidders[0]);  // first bidder in the list is always a winner so add directly\n        pendingReturns[bidders[0].addr] -= ((bidValues[bToN[bidders[0].addr].addr])[0] + (bidValues[bToN[bidders[0].addr].addr])[1])%q;\n        uint flag;\n        for(uint i=1;i<bidders.length;i++){\n            flag=0;\n            for(uint j=0;j<winners.length;j++){\n                \n                workDone[(bToN[bidders[i].addr]).addr]++;\n                workDone[(bToN[winners[j].addr]).addr]++;\n                \n                for(uint k=0;k<set_values[bToN[bidders[i].addr].addr].length;k++){\n                    if(((set_values[bToN[bidders[i].addr].addr][k]).addr)==(bToN[winners[j].addr]).addr)\n                    {\n                        if((set_values[bToN[bidders[i].addr].addr][k]).intersect==true){\n                            flag=1;  // if any intersection found break from loop\n                            break;\n                        }\n                    }\n                }\n                if(flag==1)\n                    break;\n            }\n            if(flag==0) //  if no intersection found between previous winner and current bidder make the bidder as a winner\n            {\n                winners.push(bidders[i]);\n                pendingReturns[bidders[i].addr] -= ((bidValues[bToN[bidders[i].addr].addr])[0] + (bidValues[bToN[bidders[i].addr].addr])[1])%q;\n            }\n        }\n        auctionEnded = true;\n        emit auctionEnd();\n    }\n    \n    function sortBidders()\n    workCompleted() \n    onlyAuctioneer()\n    public\n    {\n        // Sort the bidders array according to Procedure 1.\n        for (uint i = 0; i <bidders.length; i++)      \n        {\n            // Last i elements are already in place   \n            for (uint j = 0; j < bidders.length-i-1; j++){\n                uint val1;\n                uint val2;\n                workDone[(bToN[bidders[j].addr]).addr]++;\n                workDone[(bToN[bidders[j+1].addr]).addr]++;\n                \n                // for u1-u2\n                for(uint k=0;k<results[(bToN[bidders[j].addr]).addr].length;k++)\n                {\n                    if((results[(bToN[bidders[j].addr]).addr][k]).addr==(bToN[bidders[j+1].addr]).addr)\n                    {    \n                        val1=(results[(bToN[bidders[j].addr]).addr][k]).u;\n                        break;\n                    }\n                }\n                \n                // for v1-v2\n                for(k=0;k<results[(bToN[bidders[j+1].addr]).addr].length;k++)\n                {\n                    if((results[(bToN[bidders[j+1].addr]).addr][k]).addr==(bToN[bidders[j].addr]).addr)\n                    {    \n                        val2=(results[(bToN[bidders[j+1].addr]).addr][k]).v;\n                        break;\n                    }\n                }\n               if((val1+val2)%q >= q/2) // if the condition is true swap the bidders and assigned notaries.\n              {\n                //   uint[2] memory w1 = bidValues[notaries[j].addr];   //There is no need to swap notaries because there is a mapping between bidders and notaries. -> i guesss it is necessary for the next step in which winner list is determined in the third loop we are accessing notaries array there so check that once..\n                //   bidValues[notaries[j].addr] = bidValues[notaries[j+1].addr];\n                //   bidValues[notaries[j+1].addr] = w1;\n                  Bidder memory v=bidders[j];\n                  bidders[j]=bidders[j+1];\n                  bidders[j+1]=v;\n                  \n              }\n            }\n        }\n    }\n\n    function sqrt(uint x) \n    private\n    returns (uint y) \n    {\n        uint z = (x + 1) / 2;\n        y = x;\n        while (z < y) {\n            y = z;\n            z = (x / z + z) / 2;\n        }\n    }\n    function makePayments()\n    onlyIfTrue(auctionEnded)\n    onlyAuctioneer()\n    public\n    {\n        for(uint it=0; it<winners.length; it++)\n        {\n            int idx=-1;\n            uint[] memory w1=item_map[bToN[winners[it].addr].addr];\n            bool flag = false;\n            for(uint j=0;j<bidders.length;j++)\n            {\n                if(bidders[j].addr == winners[it].addr)\n                {\n                    continue;\n                }\n                uint[] memory w2 = item_map[bToN[bidders[j].addr].addr];\n                for(uint it1=0;it1\n                <w1.length;it1++)\n                {\n                    for(uint it2=0;it2<w2.length;it2++)\n                    {\n                        if(w1[it1] == w2[it2]){\n                            idx=int(j);\n                            flag = true;\n                            break;\n                        }\n                    }\n                    if(flag == true)\n                        break;\n                }\n                if(flag == true)\n                {\n                    break;\n                }\n            }\n            if(idx == -1)\n            {\n                payments[winners[it].addr]=0;\n            }\n            else\n            {\n                //biValues contains the value of w in the form of u,v u mean to use that here? or you want to sum all the item values?\n                payments[winners[it].addr]=(((bidValues[bToN[bidders[uint(idx)].addr].addr])[0]+(bidValues[bToN[bidders[uint(idx)].addr].addr])[1]))*sqrt(w1.length);    \n                pendingReturns[winners[it].addr] -= payments[winners[it].addr];\n            }\n        }   \n    }\n\n    function payNotaries()\n    onlyIfTrue(auctionEnded)\n    onlyAuctioneer()\n    public\n    {\n        for(uint i=0;i<bidders.length;i++){\n            notariesPayments[bToN[bidders[i].addr].addr]=workDone[bToN[bidders[i].addr].addr]*constPayment;\n        }\n        paymentsCalculated = true;\n    }\n\n    function withdrawNotaries()\n    onlyIfTrue(paymentsCalculated)\n    onlyIfTrue(auctionEnded)\n    isNotary()\n    public\n    returns (bool)\n    {\n        uint amount=notariesPayments[msg.sender];\n        if(amount > 0 ){\n            notariesPayments[msg.sender]=0;\n            msg.sender.transfer(amount);\n        }\n        return true;\n    }\n\n    function withdraw()\n    onlyIfTrue(auctionEnded)\n    public\n    returns (bool)\n    {\n        uint256 amount = pendingReturns[msg.sender];\n        if(amount > 0){\n            pendingReturns[msg.sender] = 0;\n            msg.sender.transfer(amount);\n        }\n        return true;\n    }\n}\n",
  "sourcePath": "/home/apoorav/Documents/blockchain/auction-smart-contract/contracts/Auction.sol",
  "compiler": {
    "name": "solc",
    "version": "0.4.24+commit.e67f0147.Emscripten.clang"
  },
  "schemaVersion": "2.0.1",
  "updatedAt": "2018-09-24T16:44:31.221Z"
}