{
  "contractName": "Auction",
  "abi": [
    {
      "constant": true,
      "inputs": [],
      "name": "ended",
      "outputs": [
        {
          "name": "",
          "type": "uint256"
        }
      ],
      "payable": false,
      "stateMutability": "view",
      "type": "function"
    },
    {
      "constant": true,
      "inputs": [],
      "name": "auctioneer",
      "outputs": [
        {
          "name": "",
          "type": "address"
        }
      ],
      "payable": false,
      "stateMutability": "view",
      "type": "function"
    },
    {
      "constant": true,
      "inputs": [
        {
          "name": "",
          "type": "uint256"
        }
      ],
      "name": "items",
      "outputs": [
        {
          "name": "",
          "type": "uint256"
        }
      ],
      "payable": false,
      "stateMutability": "view",
      "type": "function"
    },
    {
      "constant": true,
      "inputs": [
        {
          "name": "",
          "type": "uint256"
        }
      ],
      "name": "bidders",
      "outputs": [
        {
          "name": "account",
          "type": "address"
        }
      ],
      "payable": false,
      "stateMutability": "view",
      "type": "function"
    },
    {
      "constant": true,
      "inputs": [],
      "name": "q",
      "outputs": [
        {
          "name": "",
          "type": "uint256"
        }
      ],
      "payable": false,
      "stateMutability": "view",
      "type": "function"
    },
    {
      "inputs": [
        {
          "name": "_q",
          "type": "uint256"
        },
        {
          "name": "_m",
          "type": "uint256"
        }
      ],
      "payable": false,
      "stateMutability": "nonpayable",
      "type": "constructor"
    },
    {
      "constant": false,
      "inputs": [
        {
          "name": "_uv",
          "type": "uint256[2][]"
        },
        {
          "name": "_w",
          "type": "uint256[2]"
        }
      ],
      "name": "bid",
      "outputs": [],
      "payable": false,
      "stateMutability": "nonpayable",
      "type": "function"
    },
    {
      "constant": false,
      "inputs": [],
      "name": "getQ",
      "outputs": [
        {
          "name": "",
          "type": "uint256"
        }
      ],
      "payable": false,
      "stateMutability": "nonpayable",
      "type": "function"
    }
  ],
  "bytecode": "0x608060405234801561001057600080fd5b5060405160408061067683398101806040528101908080519060200190929190805190602001909291905050506000336000806101000a81548173ffffffffffffffffffffffffffffffffffffffff021916908373ffffffffffffffffffffffffffffffffffffffff16021790555082600181905550600090505b818110156100cf576002600182019080600181540180825580915050906001820390600052602060002001600090919290919091505550808060010191505061008b565b505050610595806100e16000396000f300608060405260043610610083576000357c0100000000000000000000000000000000000000000000000000000000900463ffffffff168063079d84531461008857806312fa6feb146101595780635ec2c7bf14610184578063bfb231d2146101db578063cff29dfd1461021c578063e8e4197a14610289578063fd3ab282146102b4575b600080fd5b34801561009457600080fd5b5061015760048036038101908080359060200190820180359060200190808060200260200160405190810160405280939291908181526020016000905b828210156101165784848390506040020160028060200260405190810160405280929190826002602002808284378201915050505050815260200190600101906100d1565b5050505050919291929080604001906002806020026040519081016040528092919082600260200280828437820191505050505091929192905050506102df565b005b34801561016557600080fd5b5061016e6103c1565b6040518082815260200191505060405180910390f35b34801561019057600080fd5b506101996103c7565b604051808273ffffffffffffffffffffffffffffffffffffffff1673ffffffffffffffffffffffffffffffffffffffff16815260200191505060405180910390f35b3480156101e757600080fd5b50610206600480360381019080803590602001909291905050506103ec565b6040518082815260200191505060405180910390f35b34801561022857600080fd5b506102476004803603810190808035906020019092919050505061040f565b604051808273ffffffffffffffffffffffffffffffffffffffff1673ffffffffffffffffffffffffffffffffffffffff16815260200191505060405180910390f35b34801561029557600080fd5b5061029e61045c565b6040518082815260200191505060405180910390f35b3480156102c057600080fd5b506102c9610466565b6040518082815260200191505060405180910390f35b60046060604051908101604052803373ffffffffffffffffffffffffffffffffffffffff168152602001848152602001838152509080600181540180825580915050906001820390600052602060002090600402016000909192909190915060008201518160000160006101000a81548173ffffffffffffffffffffffffffffffffffffffff021916908373ffffffffffffffffffffffffffffffffffffffff16021790555060208201518160010190805190602001906103a192919061046c565b506040820151816002019060026103b99291906104ca565b505050505050565b60035481565b6000809054906101000a900473ffffffffffffffffffffffffffffffffffffffff1681565b6002818154811015156103fb57fe5b906000526020600020016000915090505481565b60048181548110151561041e57fe5b90600052602060002090600402016000915090508060000160009054906101000a900473ffffffffffffffffffffffffffffffffffffffff16905081565b6000600154905090565b60015481565b8280548282559060005260206000209060020281019282156104b9579160200282015b828111156104b8578251829060026104a89291906104ca565b509160200191906002019061048f565b5b5090506104c6919061050a565b5090565b82600281019282156104f9579160200282015b828111156104f85782518255916020019190600101906104dd565b5b5090506105069190610536565b5090565b61053391905b8082111561052f5760008181610526919061055b565b50600201610510565b5090565b90565b61055891905b8082111561055457600081600090555060010161053c565b5090565b90565b5060008155600101600090555600a165627a7a723058204f465de8fdb5b0a37ada94cdebc8d3ebf1628dad3c94ee933e90c3205cded0c10029",
  "source": "pragma solidity  ^0.4.24;\n\ncontract Auction \n{\n    address public auctioneer;  // Auctioneer conducts the auction, maybe beneficiary also as of now?\n    uint public q;  // Q decided by auctioneer\n    uint[] public items;    // Items array\n    uint public ended;  // Whether auction  ended or not\n\n    struct Bidder // Bidder struct -- 2D arrays for random representation of values\n    {\n        address account;\n        uint[2][] uv;\n        uint[2] w;\n    }\n    \n    Bidder[] public bidders;\n\n    constructor(uint _q, uint _m) public\n    {\n        auctioneer = msg.sender;\n        q = _q;\n        for (uint i = 0; i < _m; i++) \n        {\n            items.push(i+1);\n        }\n    }\n\n     // Modifiers\n    modifier onlyBefore(uint _time) { require(now < _time, \"Too Late\"); _; }\n    modifier onlyAfter(uint _time) { require(now > _time, \"Too Early\"); _; }\n    modifier onlyAuctioneer() {require(msg.sender == auctioneer, \"Only Auctioneer is allowed to call this method\"); _; }\n    \n    function bid(uint[2][] _uv, uint[2] _w)\n    public\n    {\n        bidders.push(Bidder({\n            account: msg.sender,\n            uv: _uv,\n            w: _w\n        }));\n    }\n\n    // temporary function for testing with truffle\n    function getQ()\n    public\n    returns (uint)\n    {\n        return q;\n    }\n    //\n}",
  "sourcePath": "/home/trip-3r/Git/auction-smart-contract/contracts/Auction.sol",
  "compiler": {
    "name": "solc",
    "version": "0.4.24+commit.e67f0147.Emscripten.clang"
  },
  "schemaVersion": "2.0.1",
  "updatedAt": "2018-09-16T12:45:46.969Z"
}