{
  "contractName": "Auction",
  "abi": [
    {
      "constant": true,
      "inputs": [],
      "name": "count",
      "outputs": [
        {
          "name": "",
          "type": "uint256"
        }
      ],
      "payable": false,
      "stateMutability": "view",
      "type": "function"
    },
    {
      "constant": true,
      "inputs": [
        {
          "name": "",
          "type": "address"
        },
        {
          "name": "",
          "type": "uint256"
        }
      ],
      "name": "set_values",
      "outputs": [
        {
          "name": "addr",
          "type": "address"
        },
        {
          "name": "intersect",
          "type": "bool"
        }
      ],
      "payable": false,
      "stateMutability": "view",
      "type": "function"
    },
    {
      "constant": true,
      "inputs": [
        {
          "name": "",
          "type": "address"
        }
      ],
      "name": "workDone",
      "outputs": [
        {
          "name": "",
          "type": "uint256"
        }
      ],
      "payable": false,
      "stateMutability": "view",
      "type": "function"
    },
    {
      "constant": true,
      "inputs": [],
      "name": "auctioneer",
      "outputs": [
        {
          "name": "",
          "type": "address"
        }
      ],
      "payable": false,
      "stateMutability": "view",
      "type": "function"
    },
    {
      "constant": true,
      "inputs": [
        {
          "name": "",
          "type": "uint256"
        }
      ],
      "name": "notaries",
      "outputs": [
        {
          "name": "addr",
          "type": "address"
        }
      ],
      "payable": false,
      "stateMutability": "view",
      "type": "function"
    },
    {
      "constant": true,
      "inputs": [
        {
          "name": "",
          "type": "address"
        },
        {
          "name": "",
          "type": "uint256"
        }
      ],
      "name": "results",
      "outputs": [
        {
          "name": "addr",
          "type": "address"
        },
        {
          "name": "u",
          "type": "uint256"
        },
        {
          "name": "v",
          "type": "uint256"
        }
      ],
      "payable": false,
      "stateMutability": "view",
      "type": "function"
    },
    {
      "constant": true,
      "inputs": [],
      "name": "countIntersection",
      "outputs": [
        {
          "name": "",
          "type": "uint256"
        }
      ],
      "payable": false,
      "stateMutability": "view",
      "type": "function"
    },
    {
      "constant": true,
      "inputs": [
        {
          "name": "",
          "type": "uint256"
        }
      ],
      "name": "winners",
      "outputs": [
        {
          "name": "addr",
          "type": "address"
        }
      ],
      "payable": false,
      "stateMutability": "view",
      "type": "function"
    },
    {
      "constant": true,
      "inputs": [
        {
          "name": "",
          "type": "address"
        },
        {
          "name": "",
          "type": "uint256"
        }
      ],
      "name": "item_map",
      "outputs": [
        {
          "name": "",
          "type": "uint256"
        }
      ],
      "payable": false,
      "stateMutability": "view",
      "type": "function"
    },
    {
      "constant": true,
      "inputs": [
        {
          "name": "",
          "type": "address"
        },
        {
          "name": "",
          "type": "uint256"
        }
      ],
      "name": "bidValues",
      "outputs": [
        {
          "name": "",
          "type": "uint256"
        }
      ],
      "payable": false,
      "stateMutability": "view",
      "type": "function"
    },
    {
      "constant": true,
      "inputs": [
        {
          "name": "",
          "type": "uint256"
        }
      ],
      "name": "bidders",
      "outputs": [
        {
          "name": "addr",
          "type": "address"
        }
      ],
      "payable": false,
      "stateMutability": "view",
      "type": "function"
    },
    {
      "constant": true,
      "inputs": [
        {
          "name": "",
          "type": "address"
        }
      ],
      "name": "bToN",
      "outputs": [
        {
          "name": "addr",
          "type": "address"
        }
      ],
      "payable": false,
      "stateMutability": "view",
      "type": "function"
    },
    {
      "constant": true,
      "inputs": [
        {
          "name": "",
          "type": "address"
        }
      ],
      "name": "payments",
      "outputs": [
        {
          "name": "",
          "type": "uint256"
        }
      ],
      "payable": false,
      "stateMutability": "view",
      "type": "function"
    },
    {
      "constant": true,
      "inputs": [],
      "name": "q",
      "outputs": [
        {
          "name": "",
          "type": "uint256"
        }
      ],
      "payable": false,
      "stateMutability": "view",
      "type": "function"
    },
    {
      "inputs": [
        {
          "name": "_q",
          "type": "uint256"
        },
        {
          "name": "_m",
          "type": "uint256"
        }
      ],
      "payable": false,
      "stateMutability": "nonpayable",
      "type": "constructor"
    },
    {
      "anonymous": false,
      "inputs": [
        {
          "indexed": false,
          "name": "_bidder",
          "type": "address"
        },
        {
          "indexed": false,
          "name": "_uv",
          "type": "uint256[2][]"
        },
        {
          "indexed": false,
          "name": "_w",
          "type": "uint256[2]"
        }
      ],
      "name": "bidGiven",
      "type": "event"
    },
    {
      "anonymous": false,
      "inputs": [
        {
          "indexed": false,
          "name": "q",
          "type": "uint256"
        },
        {
          "indexed": false,
          "name": "m",
          "type": "uint256"
        }
      ],
      "name": "auctionCreated",
      "type": "event"
    },
    {
      "constant": false,
      "inputs": [
        {
          "name": "_uv",
          "type": "uint256[2][]"
        },
        {
          "name": "_w",
          "type": "uint256[2]"
        }
      ],
      "name": "registerBidder",
      "outputs": [],
      "payable": false,
      "stateMutability": "nonpayable",
      "type": "function"
    },
    {
      "constant": false,
      "inputs": [],
      "name": "registerNotary",
      "outputs": [],
      "payable": false,
      "stateMutability": "nonpayable",
      "type": "function"
    },
    {
      "constant": false,
      "inputs": [],
      "name": "assignNotary",
      "outputs": [],
      "payable": false,
      "stateMutability": "nonpayable",
      "type": "function"
    },
    {
      "constant": false,
      "inputs": [],
      "name": "performWork",
      "outputs": [],
      "payable": false,
      "stateMutability": "nonpayable",
      "type": "function"
    },
    {
      "constant": false,
      "inputs": [],
      "name": "prior_Winner",
      "outputs": [],
      "payable": false,
      "stateMutability": "nonpayable",
      "type": "function"
    },
    {
      "constant": false,
      "inputs": [],
      "name": "findWinners",
      "outputs": [],
      "payable": false,
      "stateMutability": "nonpayable",
      "type": "function"
    },
    {
      "constant": false,
      "inputs": [],
      "name": "sortBidders",
      "outputs": [],
      "payable": false,
      "stateMutability": "nonpayable",
      "type": "function"
    },
    {
      "constant": false,
      "inputs": [
        {
          "name": "x",
          "type": "uint256"
        }
      ],
      "name": "sqrt",
      "outputs": [
        {
          "name": "y",
          "type": "uint256"
        }
      ],
      "payable": false,
      "stateMutability": "nonpayable",
      "type": "function"
    },
    {
      "constant": false,
      "inputs": [],
      "name": "makePayments",
      "outputs": [],
      "payable": false,
      "stateMutability": "nonpayable",
      "type": "function"
    }
  ],
  "bytecode": "0x608060405234801561001057600080fd5b5060405160408062003eab83398101806040528101908080519060200190929190805190602001909291905050506000336000806101000a81548173ffffffffffffffffffffffffffffffffffffffff021916908373ffffffffffffffffffffffffffffffffffffffff16021790555082600181905550600090505b818110156100d0576002600182019080600181540180825580915050906001820390600052602060002001600090919290919091505550808060010191505061008c565b7fe4faa94404e0875f4c196ff80a514558e9cd9daaa08ee4f8561fff914b66479160015483604051808381526020018281526020019250505060405180910390a1505050613d8780620001246000396000f300608060405260043610610133576000357c0100000000000000000000000000000000000000000000000000000000900463ffffffff16806306661abd146101385780631f04277614610163578063210591d8146101fb5780632843d3ca146102125780633b55d26f146102295780635ec2c7bf146102805780635ff8b778146102d7578063677342ce146102ee57806368e9513e1461032f5780636d4b76d5146103465780637724f4e7146103b357806384d4496a1461044e57806388c4b2ef14610465578063a2fb117514610490578063a80672ba146104fd578063bd00d8851461055e578063bff575551461062f578063c446cac414610646578063c53658091461065d578063cff29dfd146106be578063d03fadcd1461072b578063e2982c21146107ae578063fd3ab28214610805575b600080fd5b34801561014457600080fd5b5061014d610830565b6040518082815260200191505060405180910390f35b34801561016f57600080fd5b506101ae600480360381019080803573ffffffffffffffffffffffffffffffffffffffff16906020019092919080359060200190929190505050610836565b604051808373ffffffffffffffffffffffffffffffffffffffff1673ffffffffffffffffffffffffffffffffffffffff168152602001821515151581526020019250505060405180910390f35b34801561020757600080fd5b5061021061089f565b005b34801561021e57600080fd5b50610227610ce0565b005b34801561023557600080fd5b5061026a600480360381019080803573ffffffffffffffffffffffffffffffffffffffff16906020019092919050505061115b565b6040518082815260200191505060405180910390f35b34801561028c57600080fd5b50610295611173565b604051808273ffffffffffffffffffffffffffffffffffffffff1673ffffffffffffffffffffffffffffffffffffffff16815260200191505060405180910390f35b3480156102e357600080fd5b506102ec611198565b005b3480156102fa57600080fd5b5061031960048036038101908080359060200190929190505050611a0f565b6040518082815260200191505060405180910390f35b34801561033b57600080fd5b50610344611a5a565b005b34801561035257600080fd5b5061037160048036038101908080359060200190929190505050611ba9565b604051808273ffffffffffffffffffffffffffffffffffffffff1673ffffffffffffffffffffffffffffffffffffffff16815260200191505060405180910390f35b3480156103bf57600080fd5b506103fe600480360381019080803573ffffffffffffffffffffffffffffffffffffffff16906020019092919080359060200190929190505050611bf2565b604051808473ffffffffffffffffffffffffffffffffffffffff1673ffffffffffffffffffffffffffffffffffffffff168152602001838152602001828152602001935050505060405180910390f35b34801561045a57600080fd5b50610463611c58565b005b34801561047157600080fd5b5061047a612bfb565b6040518082815260200191505060405180910390f35b34801561049c57600080fd5b506104bb60048036038101908080359060200190929190505050612c01565b604051808273ffffffffffffffffffffffffffffffffffffffff1673ffffffffffffffffffffffffffffffffffffffff16815260200191505060405180910390f35b34801561050957600080fd5b50610548600480360381019080803573ffffffffffffffffffffffffffffffffffffffff16906020019092919080359060200190929190505050612c4e565b6040518082815260200191505060405180910390f35b34801561056a57600080fd5b5061062d60048036038101908080359060200190820180359060200190808060200260200160405190810160405280939291908181526020016000905b828210156105ec5784848390506040020160028060200260405190810160405280929190826002602002808284378201915050505050815260200190600101906105a7565b505050505091929192908060400190600280602002604051908101604052809291908260026020028082843782019150505050509192919290505050612c7e565b005b34801561063b57600080fd5b50610644612f13565b005b34801561065257600080fd5b5061065b6136cb565b005b34801561066957600080fd5b506106a8600480360381019080803573ffffffffffffffffffffffffffffffffffffffff16906020019092919080359060200190929190505050613aaf565b6040518082815260200191505060405180910390f35b3480156106ca57600080fd5b506106e960048036038101908080359060200190929190505050613ad6565b604051808273ffffffffffffffffffffffffffffffffffffffff1673ffffffffffffffffffffffffffffffffffffffff16815260200191505060405180910390f35b34801561073757600080fd5b5061076c600480360381019080803573ffffffffffffffffffffffffffffffffffffffff169060200190929190505050613b23565b604051808273ffffffffffffffffffffffffffffffffffffffff1673ffffffffffffffffffffffffffffffffffffffff16815260200191505060405180910390f35b3480156107ba57600080fd5b506107ef600480360381019080803573ffffffffffffffffffffffffffffffffffffffff169060200190929190505050613b61565b6040518082815260200191505060405180910390f35b34801561081157600080fd5b5061081a613b79565b6040518082815260200191505060405180910390f35b60075481565b600c6020528160005260406000208181548110151561085157fe5b90600052602060002001600091509150508060000160009054906101000a900473ffffffffffffffffffffffffffffffffffffffff16908060000160149054906101000a900460ff16905082565b6000806000809054906101000a900473ffffffffffffffffffffffffffffffffffffffff1673ffffffffffffffffffffffffffffffffffffffff163373ffffffffffffffffffffffffffffffffffffffff1614151561098c576040517f08c379a000000000000000000000000000000000000000000000000000000000815260040180806020018281038252602e8152602001807f4f6e6c792041756374696f6e65657220697320616c6c6f77656420746f20636181526020017f6c6c2074686973206d6574686f6400000000000000000000000000000000000081525060400191505060405180910390fd5b600091505b600680549050821015610cdc576005828154811015156109ad57fe5b90600052602060002001600960006006858154811015156109ca57fe5b906000526020600020906004020160000160009054906101000a900473ffffffffffffffffffffffffffffffffffffffff1673ffffffffffffffffffffffffffffffffffffffff1673ffffffffffffffffffffffffffffffffffffffff1681526020019081526020016000206000820160009054906101000a900473ffffffffffffffffffffffffffffffffffffffff168160000160006101000a81548173ffffffffffffffffffffffffffffffffffffffff021916908373ffffffffffffffffffffffffffffffffffffffff160217905550905050600682815481101515610aaf57fe5b9060005260206000209060040201600201600a6000600585815481101515610ad357fe5b9060005260206000200160000160009054906101000a900473ffffffffffffffffffffffffffffffffffffffff1673ffffffffffffffffffffffffffffffffffffffff1673ffffffffffffffffffffffffffffffffffffffff168152602001908152602001600020906002610b49929190613b7f565b50600090505b600682815481101515610b5e57fe5b906000526020600020906004020160010180549050811015610ccf57600b6000600584815481101515610b8d57fe5b9060005260206000200160000160009054906101000a900473ffffffffffffffffffffffffffffffffffffffff1673ffffffffffffffffffffffffffffffffffffffff1673ffffffffffffffffffffffffffffffffffffffff168152602001908152602001600020600154600684815481101515610c0757fe5b906000526020600020906004020160010183815481101515610c2557fe5b90600052602060002090600202016001600281101515610c4157fe5b0154600685815481101515610c5257fe5b906000526020600020906004020160010184815481101515610c7057fe5b90600052602060002090600202016000600281101515610c8c57fe5b015401811515610c9857fe5b0690806001815401808255809150509060018203906000526020600020016000909192909190915055508080600101915050610b4f565b8180600101925050610991565b5050565b6000806000806000806000806000809150600090505b600580549050811015610d8957600581815481101515610d1257fe5b9060005260206000200160000160009054906101000a900473ffffffffffffffffffffffffffffffffffffffff1673ffffffffffffffffffffffffffffffffffffffff163373ffffffffffffffffffffffffffffffffffffffff161415610d7c5760019150610d89565b8080600101915050610cf6565b60011515821515141515610d9c57600080fd5b600860008154809291906001019190505550339850600b60008a73ffffffffffffffffffffffffffffffffffffffff1673ffffffffffffffffffffffffffffffffffffffff1681526020019081526020016000209750600096505b600580549050871015611150578873ffffffffffffffffffffffffffffffffffffffff16600588815481101515610e2a57fe5b9060005260206000200160000160009054906101000a900473ffffffffffffffffffffffffffffffffffffffff1673ffffffffffffffffffffffffffffffffffffffff1614151561114357600b6000600589815481101515610e8857fe5b9060005260206000200160000160009054906101000a900473ffffffffffffffffffffffffffffffffffffffff1673ffffffffffffffffffffffffffffffffffffffff1673ffffffffffffffffffffffffffffffffffffffff1681526020019081526020016000209550600587815481101515610f0157fe5b9060005260206000200160000160009054906101000a900473ffffffffffffffffffffffffffffffffffffffff168560000160006101000a81548173ffffffffffffffffffffffffffffffffffffffff021916908373ffffffffffffffffffffffffffffffffffffffff160217905550600093505b878054905084101561104457600092505b8580549050831015610ffa578583815481101515610fa157fe5b90600052602060002001548885815481101515610fba57fe5b90600052602060002001541415610fed5760018560000160146101000a81548160ff021916908315150217905550610ffa565b8280600101935050610f87565b858381548110151561100857fe5b9060005260206000200154888581548110151561102157fe5b9060005260206000200154141561103757611044565b8380600101945050610f76565b600c60008a73ffffffffffffffffffffffffffffffffffffffff1673ffffffffffffffffffffffffffffffffffffffff168152602001908152602001600020859080600181540180825580915050906001820390600052602060002001600090919290919091506000820160009054906101000a900473ffffffffffffffffffffffffffffffffffffffff168160000160006101000a81548173ffffffffffffffffffffffffffffffffffffffff021916908373ffffffffffffffffffffffffffffffffffffffff1602179055506000820160149054906101000a900460ff168160000160146101000a81548160ff0219169083151502179055505050505b8680600101975050610df7565b505050505050505050565b600d6020528060005260406000206000915090505481565b6000809054906101000a900473ffffffffffffffffffffffffffffffffffffffff1681565b6000806000806000809054906101000a900473ffffffffffffffffffffffffffffffffffffffff1673ffffffffffffffffffffffffffffffffffffffff163373ffffffffffffffffffffffffffffffffffffffff16141515611288576040517f08c379a000000000000000000000000000000000000000000000000000000000815260040180806020018281038252602e8152602001807f4f6e6c792041756374696f6e65657220697320616c6c6f77656420746f20636181526020017f6c6c2074686973206d6574686f6400000000000000000000000000000000000081525060400191505060405180910390fd5b60058054905060085414151561132c576040517f08c379a00000000000000000000000000000000000000000000000000000000081526004018080602001828103825260258152602001807f416c6c206e6f7461726965732068617665206e6f742066696e6973686564207781526020017f6f726b2e2e00000000000000000000000000000000000000000000000000000081525060400191505060405180910390fd5b60046006600081548110151561133e57fe5b9060005260206000209060040201908060018154018082558091505090600182039060005260206000209060040201600090919290919091506000820160009054906101000a900473ffffffffffffffffffffffffffffffffffffffff168160000160006101000a81548173ffffffffffffffffffffffffffffffffffffffff021916908373ffffffffffffffffffffffffffffffffffffffff16021790555060018201816001019080546113f4929190613bbc565b50600282018160020190600261140b929190613c21565b50505050600192505b600680549050831015611a095760009350600091505b60048054905082101561191057600d60006009600060068781548110151561144e57fe5b906000526020600020906004020160000160009054906101000a900473ffffffffffffffffffffffffffffffffffffffff1673ffffffffffffffffffffffffffffffffffffffff1673ffffffffffffffffffffffffffffffffffffffff16815260200190815260200160002060000160009054906101000a900473ffffffffffffffffffffffffffffffffffffffff1673ffffffffffffffffffffffffffffffffffffffff1673ffffffffffffffffffffffffffffffffffffffff16815260200190815260200160002060008154809291906001019190505550600d60006009600060048681548110151561153f57fe5b906000526020600020906004020160000160009054906101000a900473ffffffffffffffffffffffffffffffffffffffff1673ffffffffffffffffffffffffffffffffffffffff1673ffffffffffffffffffffffffffffffffffffffff16815260200190815260200160002060000160009054906101000a900473ffffffffffffffffffffffffffffffffffffffff1673ffffffffffffffffffffffffffffffffffffffff1673ffffffffffffffffffffffffffffffffffffffff16815260200190815260200160002060008154809291906001019190505550600090505b600c600060058581548110151561163157fe5b9060005260206000200160000160009054906101000a900473ffffffffffffffffffffffffffffffffffffffff1673ffffffffffffffffffffffffffffffffffffffff1673ffffffffffffffffffffffffffffffffffffffff168152602001908152602001600020805490508110156118f557600960006004848154811015156116b757fe5b906000526020600020906004020160000160009054906101000a900473ffffffffffffffffffffffffffffffffffffffff1673ffffffffffffffffffffffffffffffffffffffff1673ffffffffffffffffffffffffffffffffffffffff16815260200190815260200160002060000160009054906101000a900473ffffffffffffffffffffffffffffffffffffffff1673ffffffffffffffffffffffffffffffffffffffff16600c600060058681548110151561177057fe5b9060005260206000200160000160009054906101000a900473ffffffffffffffffffffffffffffffffffffffff1673ffffffffffffffffffffffffffffffffffffffff1673ffffffffffffffffffffffffffffffffffffffff168152602001908152602001600020828154811015156117e557fe5b9060005260206000200160000160009054906101000a900473ffffffffffffffffffffffffffffffffffffffff1673ffffffffffffffffffffffffffffffffffffffff1614156118e85760011515600c600060058681548110151561184657fe5b9060005260206000200160000160009054906101000a900473ffffffffffffffffffffffffffffffffffffffff1673ffffffffffffffffffffffffffffffffffffffff1673ffffffffffffffffffffffffffffffffffffffff168152602001908152602001600020828154811015156118bb57fe5b9060005260206000200160000160149054906101000a900460ff16151514156118e757600193506118f5565b5b808060010191505061161e565b600184141561190357611910565b818060010192505061142a565b60008414156119fc57600460068481548110151561192a57fe5b9060005260206000209060040201908060018154018082558091505090600182039060005260206000209060040201600090919290919091506000820160009054906101000a900473ffffffffffffffffffffffffffffffffffffffff168160000160006101000a81548173ffffffffffffffffffffffffffffffffffffffff021916908373ffffffffffffffffffffffffffffffffffffffff16021790555060018201816001019080546119e0929190613bbc565b5060028201816002019060026119f7929190613c21565b505050505b8280600101935050611414565b50505050565b600080600260018401811515611a2157fe5b0490508291505b81811015611a54578091506002818285811515611a4157fe5b0401811515611a4c57fe5b049050611a28565b50919050565b60008060009150600090505b600580549050811015611af957600581815481101515611a8257fe5b9060005260206000200160000160009054906101000a900473ffffffffffffffffffffffffffffffffffffffff1673ffffffffffffffffffffffffffffffffffffffff163373ffffffffffffffffffffffffffffffffffffffff161415611aec5760019150611af9565b8080600101915050611a66565b60001515821515141515611b0c57600080fd5b60056020604051908101604052803373ffffffffffffffffffffffffffffffffffffffff1681525090806001815401808255809150509060018203906000526020600020016000909192909190915060008201518160000160006101000a81548173ffffffffffffffffffffffffffffffffffffffff021916908373ffffffffffffffffffffffffffffffffffffffff1602179055505050505050565b600581815481101515611bb857fe5b906000526020600020016000915090508060000160009054906101000a900473ffffffffffffffffffffffffffffffffffffffff16905081565b600e60205281600052604060002081815481101515611c0d57fe5b9060005260206000209060030201600091509150508060000160009054906101000a900473ffffffffffffffffffffffffffffffffffffffff16908060010154908060020154905083565b60008060008060008060008060009054906101000a900473ffffffffffffffffffffffffffffffffffffffff1673ffffffffffffffffffffffffffffffffffffffff163373ffffffffffffffffffffffffffffffffffffffff16141515611d4d576040517f08c379a000000000000000000000000000000000000000000000000000000000815260040180806020018281038252602e8152602001807f4f6e6c792041756374696f6e65657220697320616c6c6f77656420746f20636181526020017f6c6c2074686973206d6574686f6400000000000000000000000000000000000081525060400191505060405180910390fd5b600580549050600754141515611df1576040517f08c379a00000000000000000000000000000000000000000000000000000000081526004018080602001828103825260258152602001807f416c6c206e6f7461726965732068617665206e6f742066696e6973686564207781526020017f6f726b2e2e00000000000000000000000000000000000000000000000000000081525060400191505060405180910390fd5b600096505b600680549050871015612bf257600095505b6001876006805490500303861015612be557600d60006009600060068a815481101515611e3157fe5b906000526020600020906004020160000160009054906101000a900473ffffffffffffffffffffffffffffffffffffffff1673ffffffffffffffffffffffffffffffffffffffff1673ffffffffffffffffffffffffffffffffffffffff16815260200190815260200160002060000160009054906101000a900473ffffffffffffffffffffffffffffffffffffffff1673ffffffffffffffffffffffffffffffffffffffff1673ffffffffffffffffffffffffffffffffffffffff16815260200190815260200160002060008154809291906001019190505550600d600060096000600660018b01815481101515611f2557fe5b906000526020600020906004020160000160009054906101000a900473ffffffffffffffffffffffffffffffffffffffff1673ffffffffffffffffffffffffffffffffffffffff1673ffffffffffffffffffffffffffffffffffffffff16815260200190815260200160002060000160009054906101000a900473ffffffffffffffffffffffffffffffffffffffff1673ffffffffffffffffffffffffffffffffffffffff1673ffffffffffffffffffffffffffffffffffffffff16815260200190815260200160002060008154809291906001019190505550600092505b600e60006009600060068a81548110151561201b57fe5b906000526020600020906004020160000160009054906101000a900473ffffffffffffffffffffffffffffffffffffffff1673ffffffffffffffffffffffffffffffffffffffff1673ffffffffffffffffffffffffffffffffffffffff16815260200190815260200160002060000160009054906101000a900473ffffffffffffffffffffffffffffffffffffffff1673ffffffffffffffffffffffffffffffffffffffff1673ffffffffffffffffffffffffffffffffffffffff168152602001908152602001600020805490508310156123fc576009600060066001890181548110151561210657fe5b906000526020600020906004020160000160009054906101000a900473ffffffffffffffffffffffffffffffffffffffff1673ffffffffffffffffffffffffffffffffffffffff1673ffffffffffffffffffffffffffffffffffffffff16815260200190815260200160002060000160009054906101000a900473ffffffffffffffffffffffffffffffffffffffff1673ffffffffffffffffffffffffffffffffffffffff16600e60006009600060068b8154811015156121c357fe5b906000526020600020906004020160000160009054906101000a900473ffffffffffffffffffffffffffffffffffffffff1673ffffffffffffffffffffffffffffffffffffffff1673ffffffffffffffffffffffffffffffffffffffff16815260200190815260200160002060000160009054906101000a900473ffffffffffffffffffffffffffffffffffffffff1673ffffffffffffffffffffffffffffffffffffffff1673ffffffffffffffffffffffffffffffffffffffff1681526020019081526020016000208481548110151561229a57fe5b906000526020600020906003020160000160009054906101000a900473ffffffffffffffffffffffffffffffffffffffff1673ffffffffffffffffffffffffffffffffffffffff1614156123ef57600e60006009600060068a8154811015156122ff57fe5b906000526020600020906004020160000160009054906101000a900473ffffffffffffffffffffffffffffffffffffffff1673ffffffffffffffffffffffffffffffffffffffff1673ffffffffffffffffffffffffffffffffffffffff16815260200190815260200160002060000160009054906101000a900473ffffffffffffffffffffffffffffffffffffffff1673ffffffffffffffffffffffffffffffffffffffff1673ffffffffffffffffffffffffffffffffffffffff168152602001908152602001600020838154811015156123d657fe5b90600052602060002090600302016001015494506123fc565b8280600101935050612004565b600092505b600e600060096000600660018b0181548110151561241b57fe5b906000526020600020906004020160000160009054906101000a900473ffffffffffffffffffffffffffffffffffffffff1673ffffffffffffffffffffffffffffffffffffffff1673ffffffffffffffffffffffffffffffffffffffff16815260200190815260200160002060000160009054906101000a900473ffffffffffffffffffffffffffffffffffffffff1673ffffffffffffffffffffffffffffffffffffffff1673ffffffffffffffffffffffffffffffffffffffff168152602001908152602001600020805490508310156127ff576009600060068881548110151561250357fe5b906000526020600020906004020160000160009054906101000a900473ffffffffffffffffffffffffffffffffffffffff1673ffffffffffffffffffffffffffffffffffffffff1673ffffffffffffffffffffffffffffffffffffffff16815260200190815260200160002060000160009054906101000a900473ffffffffffffffffffffffffffffffffffffffff1673ffffffffffffffffffffffffffffffffffffffff16600e600060096000600660018c018154811015156125c357fe5b906000526020600020906004020160000160009054906101000a900473ffffffffffffffffffffffffffffffffffffffff1673ffffffffffffffffffffffffffffffffffffffff1673ffffffffffffffffffffffffffffffffffffffff16815260200190815260200160002060000160009054906101000a900473ffffffffffffffffffffffffffffffffffffffff1673ffffffffffffffffffffffffffffffffffffffff1673ffffffffffffffffffffffffffffffffffffffff1681526020019081526020016000208481548110151561269a57fe5b906000526020600020906003020160000160009054906101000a900473ffffffffffffffffffffffffffffffffffffffff1673ffffffffffffffffffffffffffffffffffffffff1614156127f257600e600060096000600660018b0181548110151561270257fe5b906000526020600020906004020160000160009054906101000a900473ffffffffffffffffffffffffffffffffffffffff1673ffffffffffffffffffffffffffffffffffffffff1673ffffffffffffffffffffffffffffffffffffffff16815260200190815260200160002060000160009054906101000a900473ffffffffffffffffffffffffffffffffffffffff1673ffffffffffffffffffffffffffffffffffffffff1673ffffffffffffffffffffffffffffffffffffffff168152602001908152602001600020838154811015156127d957fe5b90600052602060002090600302016002015493506127ff565b8280600101935050612401565b600260015481151561280d57fe5b048486011015612bd857600a600060058881548110151561282a57fe5b9060005260206000200160000160009054906101000a900473ffffffffffffffffffffffffffffffffffffffff1673ffffffffffffffffffffffffffffffffffffffff1673ffffffffffffffffffffffffffffffffffffffff1681526020019081526020016000209150600a60006005600189018154811015156128aa57fe5b9060005260206000200160000160009054906101000a900473ffffffffffffffffffffffffffffffffffffffff1673ffffffffffffffffffffffffffffffffffffffff1673ffffffffffffffffffffffffffffffffffffffff168152602001908152602001600020600a600060058981548110151561292557fe5b9060005260206000200160000160009054906101000a900473ffffffffffffffffffffffffffffffffffffffff1673ffffffffffffffffffffffffffffffffffffffff1673ffffffffffffffffffffffffffffffffffffffff16815260200190815260200160002090600261299b929190613b7f565b5081600a6000600560018a018154811015156129b357fe5b9060005260206000200160000160009054906101000a900473ffffffffffffffffffffffffffffffffffffffff1673ffffffffffffffffffffffffffffffffffffffff1673ffffffffffffffffffffffffffffffffffffffff168152602001908152602001600020906002612a29929190613b7f565b50600686815481101515612a3957fe5b90600052602060002090600402019050600660018701815481101515612a5b57fe5b9060005260206000209060040201600687815481101515612a7857fe5b90600052602060002090600402016000820160009054906101000a900473ffffffffffffffffffffffffffffffffffffffff168160000160006101000a81548173ffffffffffffffffffffffffffffffffffffffff021916908373ffffffffffffffffffffffffffffffffffffffff1602179055506001820181600101908054612b03929190613bbc565b506002820181600201906002612b1a929190613c21565b5090505080600660018801815481101515612b3157fe5b90600052602060002090600402016000820160009054906101000a900473ffffffffffffffffffffffffffffffffffffffff168160000160006101000a81548173ffffffffffffffffffffffffffffffffffffffff021916908373ffffffffffffffffffffffffffffffffffffffff1602179055506001820181600101908054612bbc929190613bbc565b506002820181600201906002612bd3929190613c21565b509050505b8580600101965050611e08565b8680600101975050611df6565b50505050505050565b60085481565b600481815481101515612c1057fe5b90600052602060002090600402016000915090508060000160009054906101000a900473ffffffffffffffffffffffffffffffffffffffff16905081565b600b60205281600052604060002081815481101515612c6957fe5b90600052602060002001600091509150505481565b60008060009150600090505b600680549050811015612d1d57600681815481101515612ca657fe5b906000526020600020906004020160000160009054906101000a900473ffffffffffffffffffffffffffffffffffffffff1673ffffffffffffffffffffffffffffffffffffffff163373ffffffffffffffffffffffffffffffffffffffff161415612d1057600191505b8080600101915050612c8a565b60001515821515141515612d3057600080fd5b60066060604051908101604052803373ffffffffffffffffffffffffffffffffffffffff168152602001868152602001858152509080600181540180825580915050906001820390600052602060002090600402016000909192909190915060008201518160000160006101000a81548173ffffffffffffffffffffffffffffffffffffffff021916908373ffffffffffffffffffffffffffffffffffffffff1602179055506020820151816001019080519060200190612df2929190613c5e565b50604082015181600201906002612e0a929190613cbc565b505050507f5384b3ff153f3878869511ff30204b33691f075950322d79f21c7fbeeb17a4b1338585604051808473ffffffffffffffffffffffffffffffffffffffff1673ffffffffffffffffffffffffffffffffffffffff1681526020018060200183600260200280838360005b83811015612e93578082015181840152602081019050612e78565b505050509050018281038252848181518152602001915080516000925b81841015612efb57828490602001906020020151600260200280838360005b83811015612eea578082015181840152602081019050612ecf565b505050509050019260010192612eb0565b9250505094505050505060405180910390a150505050565b6000806000806000806000806000809054906101000a900473ffffffffffffffffffffffffffffffffffffffff1673ffffffffffffffffffffffffffffffffffffffff163373ffffffffffffffffffffffffffffffffffffffff16141515613009576040517f08c379a000000000000000000000000000000000000000000000000000000000815260040180806020018281038252602e8152602001807f4f6e6c792041756374696f6e65657220697320616c6c6f77656420746f20636181526020017f6c6c2074686973206d6574686f6400000000000000000000000000000000000081525060400191505060405180910390fd5b600097505b6004805490508810156136c1577fffffffffffffffffffffffffffffffffffffffffffffffffffffffffffffffff9650600b60006009600060048c81548110151561305557fe5b906000526020600020906004020160000160009054906101000a900473ffffffffffffffffffffffffffffffffffffffff1673ffffffffffffffffffffffffffffffffffffffff1673ffffffffffffffffffffffffffffffffffffffff16815260200190815260200160002060000160009054906101000a900473ffffffffffffffffffffffffffffffffffffffff1673ffffffffffffffffffffffffffffffffffffffff1673ffffffffffffffffffffffffffffffffffffffff1681526020019081526020016000209550600094505b600680549050851080156131e6575060048881548110151561314457fe5b906000526020600020906004020160000160009054906101000a900473ffffffffffffffffffffffffffffffffffffffff1673ffffffffffffffffffffffffffffffffffffffff1660068681548110151561319b57fe5b906000526020600020906004020160000160009054906101000a900473ffffffffffffffffffffffffffffffffffffffff1673ffffffffffffffffffffffffffffffffffffffff1614155b1561338057600b60006009600060068981548110151561320257fe5b906000526020600020906004020160000160009054906101000a900473ffffffffffffffffffffffffffffffffffffffff1673ffffffffffffffffffffffffffffffffffffffff1673ffffffffffffffffffffffffffffffffffffffff16815260200190815260200160002060000160009054906101000a900473ffffffffffffffffffffffffffffffffffffffff1673ffffffffffffffffffffffffffffffffffffffff1673ffffffffffffffffffffffffffffffffffffffff168152602001908152602001600020935060009250600091505b858054905088101561336157600090505b838054905081101561334557838181548110151561330257fe5b9060005260206000200154868381548110151561331b57fe5b906000526020600020015414156133385784965060019250613345565b80806001019150506132e8565b60019250821561335457613361565b81806001019250506132d7565b60011515831515141561337357613380565b8480600101955050613126565b7fffffffffffffffffffffffffffffffffffffffffffffffffffffffffffffffff871415613432576000600f600060048b8154811015156133bd57fe5b906000526020600020906004020160000160009054906101000a900473ffffffffffffffffffffffffffffffffffffffff1673ffffffffffffffffffffffffffffffffffffffff1673ffffffffffffffffffffffffffffffffffffffff168152602001908152602001600020819055506136b4565b61343f8680549050611a0f565b600154600a60006009600060068d81548110151561345957fe5b906000526020600020906004020160000160009054906101000a900473ffffffffffffffffffffffffffffffffffffffff1673ffffffffffffffffffffffffffffffffffffffff1673ffffffffffffffffffffffffffffffffffffffff16815260200190815260200160002060000160009054906101000a900473ffffffffffffffffffffffffffffffffffffffff1673ffffffffffffffffffffffffffffffffffffffff1673ffffffffffffffffffffffffffffffffffffffff168152602001908152602001600020600160028110151561353157fe5b0154600a60006009600060068e81548110151561354a57fe5b906000526020600020906004020160000160009054906101000a900473ffffffffffffffffffffffffffffffffffffffff1673ffffffffffffffffffffffffffffffffffffffff1673ffffffffffffffffffffffffffffffffffffffff16815260200190815260200160002060000160009054906101000a900473ffffffffffffffffffffffffffffffffffffffff1673ffffffffffffffffffffffffffffffffffffffff1673ffffffffffffffffffffffffffffffffffffffff168152602001908152602001600020600060028110151561362257fe5b01540181151561362e57fe5b0602600f600060048b81548110151561364357fe5b906000526020600020906004020160000160009054906101000a900473ffffffffffffffffffffffffffffffffffffffff1673ffffffffffffffffffffffffffffffffffffffff1673ffffffffffffffffffffffffffffffffffffffff168152602001908152602001600020819055505b878060010198505061300e565b5050505050505050565b6000806000806000806000809150600090505b600580549050811015613771576005818154811015156136fa57fe5b9060005260206000200160000160009054906101000a900473ffffffffffffffffffffffffffffffffffffffff1673ffffffffffffffffffffffffffffffffffffffff163373ffffffffffffffffffffffffffffffffffffffff1614156137645760019150613771565b80806001019150506136de565b6001151582151514151561378457600080fd5b600760008154809291906001019190505550339650600a60008873ffffffffffffffffffffffffffffffffffffffff1673ffffffffffffffffffffffffffffffffffffffff1681526020019081526020016000209550600094505b600580549050851015613aa6578673ffffffffffffffffffffffffffffffffffffffff1660058681548110151561381257fe5b9060005260206000200160000160009054906101000a900473ffffffffffffffffffffffffffffffffffffffff1673ffffffffffffffffffffffffffffffffffffffff16141515613a9957600a600060058781548110151561387057fe5b9060005260206000200160000160009054906101000a900473ffffffffffffffffffffffffffffffffffffffff1673ffffffffffffffffffffffffffffffffffffffff1673ffffffffffffffffffffffffffffffffffffffff16815260200190815260200160002093506005858154811015156138e957fe5b9060005260206000200160000160009054906101000a900473ffffffffffffffffffffffffffffffffffffffff168360000160006101000a81548173ffffffffffffffffffffffffffffffffffffffff021916908373ffffffffffffffffffffffffffffffffffffffff16021790555083600060028110151561396857fe5b015486600060028110151561397957fe5b015403836001018190555085600160028110151561399357fe5b01548460016002811015156139a457fe5b0154038360020181905550600e60008873ffffffffffffffffffffffffffffffffffffffff1673ffffffffffffffffffffffffffffffffffffffff16815260200190815260200160002083908060018154018082558091505090600182039060005260206000209060030201600090919290919091506000820160009054906101000a900473ffffffffffffffffffffffffffffffffffffffff168160000160006101000a81548173ffffffffffffffffffffffffffffffffffffffff021916908373ffffffffffffffffffffffffffffffffffffffff16021790555060018201548160010155600282015481600201555050505b84806001019550506137df565b50505050505050565b600a60205281600052604060002081600281101515613aca57fe5b01600091509150505481565b600681815481101515613ae557fe5b90600052602060002090600402016000915090508060000160009054906101000a900473ffffffffffffffffffffffffffffffffffffffff16905081565b60096020528060005260406000206000915090508060000160009054906101000a900473ffffffffffffffffffffffffffffffffffffffff16905081565b600f6020528060005260406000206000915090505481565b60015481565b8260028101928215613bab579182015b82811115613baa578254825591600101919060010190613b8f565b5b509050613bb89190613cfc565b5090565b828054828255906000526020600020906002028101928215613c105760005260206000209160020282015b82811115613c0f578282906002613bff929190613c21565b5091600201919060020190613be7565b5b509050613c1d9190613d21565b5090565b8260028101928215613c4d579182015b82811115613c4c578254825591600101919060010190613c31565b5b509050613c5a9190613cfc565b5090565b828054828255906000526020600020906002028101928215613cab579160200282015b82811115613caa57825182906002613c9a929190613cbc565b5091602001919060020190613c81565b5b509050613cb89190613d21565b5090565b8260028101928215613ceb579160200282015b82811115613cea578251825591602001919060010190613ccf565b5b509050613cf89190613cfc565b5090565b613d1e91905b80821115613d1a576000816000905550600101613d02565b5090565b90565b613d4a91905b80821115613d465760008181613d3d9190613d4d565b50600201613d27565b5090565b90565b5060008155600101600090555600a165627a7a72305820fd3ec4ce56df6aaf5215fc638d0dd8701f8bb72fb9bee8dd28a71aadf88e08a00029",
  "source": "pragma solidity  ^0.4.24;\n\ncontract Auction \n{\n    struct Notary   // Notary struct -- may add more attributes to notary if necessary\n    {\n        address addr;\n    }\n    \n    struct Bidder // Bidder struct -- 2D arrays for random representation of values\n    {\n        address addr;   // The unique address\n        uint[2][] uv;   // The random representations of the items \n        uint[2] w;  // The random representation of w\n    }\n    struct Result // for storing result of comparision by notaries\n    {\n        address addr;\n        uint u;  // u1-u2\n        uint v;  // v2-v1\n    }\n    struct setIntersection // for storing result of intersections of item lists\n    {\n        address addr;\n        bool intersect;\n    }\n    address public auctioneer;  // Auctioneer conducts the auction, maybe beneficiary also as of now?\n    uint public q;  // Q decided by auctioneer\n    uint[] items;    // Items array\n    uint auctionEnded;  // Whether auction  ended or not\n    \n    Bidder[] public winners;  // containg list of winners\n    Notary[] public notaries; // containg list of notaries\n    Bidder[] public bidders; // containg list of bidders\n    \n    uint public count;  // maintains count of notaries who have done comparision work\n    uint public countIntersection; // maintains count of notaries who have done determination of set intersections\n    \n    mapping(address => Notary) public bToN; // mapping between bidders and notaries\n    mapping(address => uint[2]) public bidValues; // mapping between notaries and bid values of bidders assigned to them\n    mapping(address => uint[]) public item_map; // mapping between notaries and set of items of bidders assigned to them\n    mapping(address => setIntersection[]) public set_values; // mapping containing notaries address and set intersection results\n    mapping(address => uint) public workDone; // mapping containg notaries address and amount to be paid to notaries\n    mapping(address => Result[]) public results; // mapping between notaries and results of comparision used for sorting\n    mapping(address => uint) public payments;\n    \n    constructor (uint _q, uint _m) \n    public\n    {\n        auctioneer = msg.sender;\n        q = _q;\n        // The items array is created. May remove if not needed\n        for (uint i = 0; i < _m; i++) \n        {\n            items.push(i+1);\n        }\n        emit auctionCreated(q, _m);\n        // Auctioneer broadcasts the value Q and the no. of items m. \n    }\n\n     // Modifiers\n    modifier onlyBefore(uint _time) { require(now < _time, \"Too Late\"); _; }\n    modifier onlyAfter(uint _time) { require(now > _time, \"Too Early\"); _; }\n    modifier onlyAuctioneer() {require(msg.sender == auctioneer, \"Only Auctioneer is allowed to call this method\"); _; }\n    modifier workCompleted() { require(count == notaries.length,\"All notaries have not finished work..\"); _; }\n    modifier workCompleted1() { require(countIntersection == notaries.length,\"All notaries have not finished work..\"); _; }\n    \n    \n    modifier isNotBidder()\n    {\n        bool flag = false;\n        for(uint i=0; i< bidders.length; i++)\n        {\n            if(msg.sender == bidders[i].addr)\n            {\n                flag = true;\n            }\n        }\n        require(flag == false);\n        _;\n    }\n    modifier isNotNotary()\n    {\n        bool flag = false;\n        for(uint i=0;i<notaries.length; i++)\n        {\n            if(msg.sender == notaries[i].addr)\n            {\n                flag = true;\n                break;\n            }\n        }\n        require(flag == false);\n        _;\n    } \n     modifier sufficientNotaries()\n    {\n        require(notaries.length>=bidders.length,\"Insufficient notaries registered\");\n        _;\n    }\n\n    modifier isNotary()\n    {\n        bool flag = false;\n        for(uint i=0;i<notaries.length; i++)\n        {\n            if(msg.sender == notaries[i].addr)\n            {\n                flag = true;\n                break;\n            }\n        }\n        require(flag == true);\n        _;\n    } \n    \n    // Events\n    event bidGiven (address _bidder, uint[2][] _uv, uint[2] _w); // just for checking\n    event auctionCreated(uint q, uint m);\n\n    // Bidder will bid using this function\n    function registerBidder(uint[2][] _uv, uint[2] _w)\n    isNotBidder()   // Same bidder can't bid more than once\n    public\n    {\n        bidders.push(Bidder({\n            addr: msg.sender,\n            uv: _uv,\n            w: _w\n        }));\n        emit bidGiven(msg.sender, _uv, _w);\n\n        // Assign a notary to this bidder\n        // Throught mapping(notary ->  bidder) maybe?\n    }\n\n    // Notary will register using this function\n    function registerNotary()\n    isNotNotary()   // Same notary can't register more than once\n    public\n    {\n        notaries.push(Notary({\n            addr: msg.sender\n        }));\n    }\n\n    /* \n    The auctioneer calls this to assign each bidder a notary\n    The assigned notary must have access to the bid of each bidder.\n    TODO: Only assigned notary should be able to see the bids\n     */\n    function assignNotary()\n    onlyAuctioneer()    // Only auctioneer should be able to call this method\n    public\n    {\n        /* \n        mapping(struct -> struct) is not possible in solidity \n            using a mapping(address => struct) instead\n        */\n        // TODO:Randomize this assigning somehow\n        for(uint i=0;i<bidders.length;i++)\n        {\n            bToN[bidders[i].addr] = notaries[i];\n            bidValues[notaries[i].addr]=bidders[i].w;  // assigning bidding values of bidders to their notaries\n            \n            for(uint j=0;j<bidders[i].uv.length;j++)\n            {\n                item_map[notaries[i].addr].push((bidders[i].uv[j][0]+bidders[i].uv[j][1])%q); // assigning bidding items of bidders to notaries\n            }\n        }   \n    }\n    // uint count public =0;\n    function performWork()\n    isNotary()\n    {\n        count++; // to maintain number of notaries who have done comparision work.\n        address myadd = msg.sender;\n        uint[2] w2;\n        w2=bidValues[myadd];  // u,v of bidder value of bidder assigned to notary\n        for(uint i=0;i<notaries.length;i++){\n            if(notaries[i].addr!=myadd){\n                uint[2] w1;\n                w1=bidValues[notaries[i].addr];\n                Result r;\n                r.addr = notaries[i].addr;\n                r.u=w2[0]-w1[0];\n                r.v=w1[1]-w2[1];\n                results[myadd].push(r);  // add the val1 and val2 into the mapping\n            }\n        }\n    }\n    \n    // Auctioneer starts the process to find the winner.\n    \n    function prior_Winner()\n    isNotary()\n    {\n        \n        countIntersection++; // to maintain number of notaries who have done determination of intersection between sets.\n        address myadd = msg.sender;\n        uint[] w2;\n        w2=item_map[myadd];  // array of items for which bidding is to be done by that bidder\n        for(uint i=0;i<notaries.length;i++){\n            if(notaries[i].addr!=myadd)\n            {\n                uint[] w1;\n                w1=item_map[notaries[i].addr];\n                setIntersection si;\n                si.addr=notaries[i].addr;\n                \n                for(uint j=0;j<w2.length;j++){\n                    for(uint k=0;k<w1.length;k++){\n                        if(w2[j]==w1[k])\n                        {\n                            si.intersect = true;\n                            break;\n                        }\n                    }\n                    if(w2[j]==w1[k])\n                        break;\n                    \n                }\n                set_values[myadd].push(si);  // pushing true or false according to intersection found between array of items of different bidders\n            }\n        }\n    }\n    \n    function findWinners()\n    onlyAuctioneer()\n    workCompleted1()\n    {\n        winners.push(bidders[0]);  // first bidder in the list is always a winner so add directly\n        uint flag;\n        for(uint i=1;i<bidders.length;i++){\n            flag=0;\n            for(uint j=0;j<winners.length;j++){\n                \n                workDone[(bToN[bidders[i].addr]).addr]++;\n                workDone[(bToN[winners[j].addr]).addr]++;\n                \n                for(uint k=0;k<set_values[notaries[i].addr].length;k++){\n                    if(((set_values[notaries[i].addr][k]).addr)==(bToN[winners[j].addr]).addr)\n                    {\n                        if((set_values[notaries[i].addr][k]).intersect==true){\n                            flag=1;  // if any intersection found break from loop\n                            break;\n                        }\n                    }\n                }\n                if(flag==1)\n                    break;\n            }\n            if(flag==0) //  if no intersection found between previous winner and current bidder make the bidder as a winner\n                winners.push(bidders[i]);\n        }\n    }\n    \n    function sortBidders()\n    onlyAuctioneer()\n    workCompleted()\n    {\n        // Sort the bidders array according to Procedure 1.\n        for (uint i = 0; i <bidders.length; i++)      \n        {\n            // Last i elements are already in place   \n            for (uint j = 0; j < bidders.length-i-1; j++){\n                uint val1;\n                uint val2;\n                workDone[(bToN[bidders[j].addr]).addr]++;\n                workDone[(bToN[bidders[j+1].addr]).addr]++;\n                \n                // for u1-u2\n                for(uint k=0;k<results[bToN[bidders[j].addr].addr].length;k++)\n                {\n                    if((results[bToN[bidders[j].addr].addr][k]).addr==bToN[bidders[j+1].addr].addr)\n                    {    \n                        val1=(results[bToN[bidders[j].addr].addr][k]).u;\n                        break;\n                    }\n                }\n                \n                // for v1-v2\n                for(k=0;k<results[bToN[bidders[j+1].addr].addr].length;k++)\n                {\n                    if((results[bToN[bidders[j+1].addr].addr][k]).addr==bToN[bidders[j].addr].addr)\n                    {    \n                        val2=(results[bToN[bidders[j+1].addr].addr][k]).v;\n                        break;\n                    }\n                }\n               if((val1+val2)<q/2) // if the condition is true swap the bidders and assigned notaries.\n              {\n                  uint[2] w1 = bidValues[notaries[j].addr];   //There is no need to swap notaries because there is a mapping between bidders and notaries. -> i guesss it is necessary for the next step in which winner list is determined in the third loop we are accessing notaries array there so check that once..\n                  bidValues[notaries[j].addr] = bidValues[notaries[j+1].addr];\n                  bidValues[notaries[j+1].addr] = w1;\n                  Bidder v=bidders[j];\n                  bidders[j]=bidders[j+1];\n                  bidders[j+1]=v;\n                  \n              }\n            }\n        }\n    }\n\n    function sqrt(uint x) returns (uint y) {\n        uint z = (x + 1) / 2;\n        y = x;\n        while (z < y) {\n            y = z;\n            z = (x / z + z) / 2;\n        }\n    }\n    function makePayments()\n    onlyAuctioneer()\n    {\n        for(uint it=0; it<winners.length; it++)\n        {\n            int idx=-1;\n            uint[] w1=item_map[bToN[winners[it].addr].addr];\n            for(uint j=0;j<bidders.length && bidders[j].addr!=winners[it].addr;j++)\n            {\n                uint[] w2 = item_map[bToN[bidders[j].addr].addr];\n                bool flag=false;\n                for(uint it1=0;it<w1.length;it1++)\n                {\n                    for(uint it2=0;it2<w2.length;it2++)\n                    {\n                        if(w1[it1]==w2[it2]){\n                            idx=int(j);\n                            flag=true;\n                            break;\n                        }\n                    }\n                    if(flag=true)\n                        break;\n                }\n                if(flag==true)\n                {\n                    break;\n                }\n            }\n            if(idx==-1)\n            {\n                payments[winners[it].addr]=0;\n            }\n            else\n            {\n                \n                //biValues contains the value of w in the form of u,v u mean to use that here? or you want to sum all the item values?\n                payments[winners[it].addr]=(((bidValues[bToN[bidders[uint(idx)].addr].addr])[0]+(bidValues[bToN[bidders[uint(idx)].addr].addr])[1])%q)*sqrt(w1.length);  \n                \n            }\n        }   \n    }\n\n    // function \n    /* \n    temporary function for testing with truffle\n    function getQ()\n    public\n    returns (uint)\n    {\n        return q;\n    }\n*/\n}\n",
  "sourcePath": "/home/apoorav/Documents/blockchain/auction-smart-contract/contracts/Auction.sol",
  "compiler": {
    "name": "solc",
    "version": "0.4.24+commit.e67f0147.Emscripten.clang"
  },
  "schemaVersion": "2.0.1",
  "updatedAt": "2018-09-23T12:24:24.032Z"
}