{
  "contractName": "Auction",
  "abi": [
    {
      "constant": true,
      "inputs": [],
      "name": "ended",
      "outputs": [
        {
          "name": "",
          "type": "uint256"
        }
      ],
      "payable": false,
      "stateMutability": "view",
      "type": "function"
    },
    {
      "constant": true,
      "inputs": [],
      "name": "auctioneer",
      "outputs": [
        {
          "name": "",
          "type": "address"
        }
      ],
      "payable": false,
      "stateMutability": "view",
      "type": "function"
    },
    {
      "constant": true,
      "inputs": [
        {
          "name": "",
          "type": "uint256"
        }
      ],
      "name": "items",
      "outputs": [
        {
          "name": "",
          "type": "uint256"
        }
      ],
      "payable": false,
      "stateMutability": "view",
      "type": "function"
    },
    {
      "constant": true,
      "inputs": [
        {
          "name": "",
          "type": "uint256"
        }
      ],
      "name": "bidders",
      "outputs": [
        {
          "name": "account",
          "type": "address"
        }
      ],
      "payable": false,
      "stateMutability": "view",
      "type": "function"
    },
    {
      "constant": true,
      "inputs": [],
      "name": "q",
      "outputs": [
        {
          "name": "",
          "type": "uint256"
        }
      ],
      "payable": false,
      "stateMutability": "view",
      "type": "function"
    }
  ],
  "bytecode": "0x608060405234801561001057600080fd5b5061029a806100206000396000f30060806040526004361061006d576000357c0100000000000000000000000000000000000000000000000000000000900463ffffffff16806312fa6feb146100725780635ec2c7bf1461009d578063bfb231d2146100f4578063cff29dfd14610135578063fd3ab282146101a2575b600080fd5b34801561007e57600080fd5b506100876101cd565b6040518082815260200191505060405180910390f35b3480156100a957600080fd5b506100b26101d3565b604051808273ffffffffffffffffffffffffffffffffffffffff1673ffffffffffffffffffffffffffffffffffffffff16815260200191505060405180910390f35b34801561010057600080fd5b5061011f600480360381019080803590602001909291905050506101f8565b6040518082815260200191505060405180910390f35b34801561014157600080fd5b506101606004803603810190808035906020019092919050505061021b565b604051808273ffffffffffffffffffffffffffffffffffffffff1673ffffffffffffffffffffffffffffffffffffffff16815260200191505060405180910390f35b3480156101ae57600080fd5b506101b7610268565b6040518082815260200191505060405180910390f35b60035481565b6000809054906101000a900473ffffffffffffffffffffffffffffffffffffffff1681565b60028181548110151561020757fe5b906000526020600020016000915090505481565b60048181548110151561022a57fe5b90600052602060002090600402016000915090508060000160009054906101000a900473ffffffffffffffffffffffffffffffffffffffff16905081565b600154815600a165627a7a72305820f60aee7fa0a73337148bf31d9b3fd4f8e323d1e549e2a3bdb519edeee010a7bc0029",
  "source": "pragma solidity ^0.4.24;\n\ncontract Auction \n{\n    address public auctioneer;  // Auctioneer conducts the auction, maybe beneficiary also as of now?\n    uint public q;  // Q decided by auctioneer\n    uint[] public items;    // Items array\n    uint public ended;  // Whether auction  ended or not\n\n    // constructor(uint _q, uint _m) public\n    // {\n    //     auctioneer = msg.sender;\n    //     q = _q;\n    //     for (uint i = 0; i < _m; i++) \n    //     {\n    //         items.push(i+1);\n    //     }\n    // }\n\n    struct Bidder // Bidder struct -- 2D arrays for random representation of values\n    {\n        address account;\n        uint[2][] uv;\n        uint[2] w;\n    }\n    \n    Bidder[] public bidders;\n\n    // Modifiers\n    modifier onlyBefore(uint _time) { require(now < _time, \"Too Late\"); _; }\n    modifier onlyAfter(uint _time) { require(now > _time, \"Too Early\"); _; }\n    modifier onlyAuctioneer() {require(msg.sender == auctioneer, \"Only Auctioneer is allowed to call this method\"); _; }\n\n}",
  "sourcePath": "/home/trip-3r/Git/auction-smart-contract/contracts/Auction.sol",
  "compiler": {
    "name": "solc",
    "version": "0.4.24+commit.e67f0147.Emscripten.clang"
  },
  "schemaVersion": "2.0.1",
  "updatedAt": "2018-09-16T06:19:21.828Z"
}